{
  "contractName": "MyBitTokenLocker",
  "abi": [
    {
      "constant": true,
      "inputs": [],
      "name": "hasInitialized",
      "outputs": [
        {
          "name": "",
          "type": "bool"
        }
      ],
      "payable": false,
      "stateMutability": "view",
      "type": "function"
    },
    {
      "constant": true,
      "inputs": [
        {
          "name": "",
          "type": "uint256"
        }
      ],
      "name": "lockAmounts",
      "outputs": [
        {
          "name": "",
          "type": "uint256"
        }
      ],
      "payable": false,
      "stateMutability": "view",
      "type": "function"
    },
    {
      "constant": true,
      "inputs": [
        {
          "name": "_script",
          "type": "bytes"
        }
      ],
      "name": "getEVMScriptExecutor",
      "outputs": [
        {
          "name": "",
          "type": "address"
        }
      ],
      "payable": false,
      "stateMutability": "view",
      "type": "function"
    },
    {
      "constant": true,
      "inputs": [],
      "name": "getRecoveryVault",
      "outputs": [
        {
          "name": "",
          "type": "address"
        }
      ],
      "payable": false,
      "stateMutability": "view",
      "type": "function"
    },
    {
      "constant": true,
      "inputs": [
        {
          "name": "",
          "type": "address"
        }
      ],
      "name": "lockStart",
      "outputs": [
        {
          "name": "",
          "type": "uint256"
        }
      ],
      "payable": false,
      "stateMutability": "view",
      "type": "function"
    },
    {
      "constant": true,
      "inputs": [
        {
          "name": "",
          "type": "address"
        }
      ],
      "name": "claimedToken",
      "outputs": [
        {
          "name": "",
          "type": "bool"
        }
      ],
      "payable": false,
      "stateMutability": "view",
      "type": "function"
    },
    {
      "constant": true,
      "inputs": [],
      "name": "tokensale",
      "outputs": [
        {
          "name": "",
          "type": "address"
        }
      ],
      "payable": false,
      "stateMutability": "view",
      "type": "function"
    },
    {
      "constant": true,
      "inputs": [],
      "name": "erc20",
      "outputs": [
        {
          "name": "",
          "type": "address"
        }
      ],
      "payable": false,
      "stateMutability": "view",
      "type": "function"
    },
    {
      "constant": true,
      "inputs": [],
      "name": "appId",
      "outputs": [
        {
          "name": "",
          "type": "bytes32"
        }
      ],
      "payable": false,
      "stateMutability": "view",
      "type": "function"
    },
    {
      "constant": true,
      "inputs": [],
      "name": "claimAmount",
      "outputs": [
        {
          "name": "",
          "type": "uint256"
        }
      ],
      "payable": false,
      "stateMutability": "view",
      "type": "function"
    },
    {
      "constant": true,
      "inputs": [
        {
          "name": "",
          "type": "address"
        }
      ],
      "name": "lockExpiry",
      "outputs": [
        {
          "name": "",
          "type": "uint256"
        }
      ],
      "payable": false,
      "stateMutability": "view",
      "type": "function"
    },
    {
      "constant": true,
      "inputs": [
        {
          "name": "",
          "type": "uint256"
        }
      ],
      "name": "lockIntervals",
      "outputs": [
        {
          "name": "",
          "type": "uint256"
        }
      ],
      "payable": false,
      "stateMutability": "view",
      "type": "function"
    },
    {
      "constant": true,
      "inputs": [],
      "name": "getInitializationBlock",
      "outputs": [
        {
          "name": "",
          "type": "uint256"
        }
      ],
      "payable": false,
      "stateMutability": "view",
      "type": "function"
    },
    {
      "constant": true,
      "inputs": [
        {
          "name": "",
          "type": "address"
        }
      ],
      "name": "lockAmount",
      "outputs": [
        {
          "name": "",
          "type": "uint256"
        }
      ],
      "payable": false,
      "stateMutability": "view",
      "type": "function"
    },
    {
      "constant": false,
      "inputs": [
        {
          "name": "_token",
          "type": "address"
        }
      ],
      "name": "transferToVault",
      "outputs": [],
      "payable": false,
      "stateMutability": "nonpayable",
      "type": "function"
    },
    {
      "constant": true,
      "inputs": [
        {
          "name": "_sender",
          "type": "address"
        },
        {
          "name": "_role",
          "type": "bytes32"
        },
        {
          "name": "_params",
          "type": "uint256[]"
        }
      ],
      "name": "canPerform",
      "outputs": [
        {
          "name": "",
          "type": "bool"
        }
      ],
      "payable": false,
      "stateMutability": "view",
      "type": "function"
    },
    {
      "constant": true,
      "inputs": [],
      "name": "getEVMScriptRegistry",
      "outputs": [
        {
          "name": "",
          "type": "address"
        }
      ],
      "payable": false,
      "stateMutability": "view",
      "type": "function"
    },
    {
      "constant": true,
      "inputs": [],
      "name": "BURN_ROLE",
      "outputs": [
        {
          "name": "",
          "type": "bytes32"
        }
      ],
      "payable": false,
      "stateMutability": "view",
      "type": "function"
    },
    {
      "constant": true,
      "inputs": [],
      "name": "kernel",
      "outputs": [
        {
          "name": "",
          "type": "address"
        }
      ],
      "payable": false,
      "stateMutability": "view",
      "type": "function"
    },
    {
      "constant": true,
      "inputs": [],
      "name": "isPetrified",
      "outputs": [
        {
          "name": "",
          "type": "bool"
        }
      ],
      "payable": false,
      "stateMutability": "view",
      "type": "function"
    },
    {
      "constant": true,
      "inputs": [
        {
          "name": "",
          "type": "uint256"
        }
      ],
      "name": "tokenIntervals",
      "outputs": [
        {
          "name": "",
          "type": "uint256"
        }
      ],
      "payable": false,
      "stateMutability": "view",
      "type": "function"
    },
    {
      "constant": true,
      "inputs": [],
      "name": "vault",
      "outputs": [
        {
          "name": "",
          "type": "address"
        }
      ],
      "payable": false,
      "stateMutability": "view",
      "type": "function"
    },
    {
      "constant": true,
      "inputs": [],
      "name": "token",
      "outputs": [
        {
          "name": "",
          "type": "address"
        }
      ],
      "payable": false,
      "stateMutability": "view",
      "type": "function"
    },
    {
      "anonymous": false,
      "inputs": [
        {
          "indexed": false,
          "name": "user",
          "type": "address"
        }
      ],
      "name": "TokenClaimed",
      "type": "event"
    },
    {
      "anonymous": false,
      "inputs": [
        {
          "indexed": false,
          "name": "user",
          "type": "address"
        },
        {
          "indexed": false,
          "name": "amount",
          "type": "uint256"
        }
      ],
      "name": "TokensLocked",
      "type": "event"
    },
    {
      "anonymous": false,
      "inputs": [
        {
          "indexed": false,
          "name": "user",
          "type": "address"
        },
        {
          "indexed": false,
          "name": "amount",
          "type": "uint256"
        },
        {
          "indexed": false,
          "name": "message",
          "type": "string"
        }
      ],
      "name": "TokensBurned",
      "type": "event"
    },
    {
      "anonymous": false,
      "inputs": [
        {
          "indexed": true,
          "name": "executor",
          "type": "address"
        },
        {
          "indexed": false,
          "name": "script",
          "type": "bytes"
        },
        {
          "indexed": false,
          "name": "input",
          "type": "bytes"
        },
        {
          "indexed": false,
          "name": "returnData",
          "type": "bytes"
        }
      ],
      "name": "ScriptResult",
      "type": "event"
    },
    {
      "constant": false,
      "inputs": [
        {
          "name": "_token",
          "type": "address"
        },
        {
          "name": "_erc20",
          "type": "address"
        },
        {
          "name": "_tokensale",
          "type": "address"
        },
        {
          "name": "_vault",
          "type": "address"
        },
        {
          "name": "_lockAmounts",
          "type": "uint256[]"
        },
        {
          "name": "_lockIntervals",
          "type": "uint256[]"
        },
        {
          "name": "_tokenIntervals",
          "type": "uint256[]"
        }
      ],
      "name": "initialize",
      "outputs": [],
      "payable": false,
      "stateMutability": "nonpayable",
      "type": "function"
    },
    {
      "constant": false,
      "inputs": [
        {
          "name": "_day",
          "type": "uint16"
        }
      ],
      "name": "claim",
      "outputs": [],
      "payable": false,
      "stateMutability": "nonpayable",
      "type": "function"
    },
    {
      "constant": false,
      "inputs": [
        {
          "name": "_lockTime",
          "type": "uint256"
        }
      ],
      "name": "lock",
      "outputs": [],
      "payable": false,
      "stateMutability": "nonpayable",
      "type": "function"
    },
    {
      "constant": false,
      "inputs": [],
      "name": "unlock",
      "outputs": [],
      "payable": false,
      "stateMutability": "nonpayable",
      "type": "function"
    },
    {
      "constant": false,
      "inputs": [
        {
          "name": "_user",
          "type": "address"
        },
        {
          "name": "_message",
          "type": "string"
        }
      ],
      "name": "burn",
      "outputs": [],
      "payable": false,
      "stateMutability": "nonpayable",
      "type": "function"
    },
    {
      "constant": true,
      "inputs": [],
      "name": "getLockAmounts",
      "outputs": [
        {
          "name": "",
          "type": "uint256[]"
        }
      ],
      "payable": false,
      "stateMutability": "view",
      "type": "function"
    },
    {
      "constant": true,
      "inputs": [],
      "name": "getLockIntervals",
      "outputs": [
        {
          "name": "",
          "type": "uint256[]"
        }
      ],
      "payable": false,
      "stateMutability": "view",
      "type": "function"
    },
    {
      "constant": true,
      "inputs": [],
      "name": "getTokenIntervals",
      "outputs": [
        {
          "name": "",
          "type": "uint256[]"
        }
      ],
      "payable": false,
      "stateMutability": "view",
      "type": "function"
    },
    {
      "constant": false,
      "inputs": [
        {
          "name": "_evmScript",
          "type": "bytes"
        }
      ],
      "name": "forward",
      "outputs": [],
      "payable": false,
      "stateMutability": "nonpayable",
      "type": "function"
    },
    {
      "constant": true,
      "inputs": [],
      "name": "isForwarder",
      "outputs": [
        {
          "name": "",
          "type": "bool"
        }
      ],
      "payable": false,
      "stateMutability": "pure",
      "type": "function"
    },
    {
      "constant": true,
      "inputs": [
        {
          "name": "_sender",
          "type": "address"
        },
        {
          "name": "",
          "type": "bytes"
        }
      ],
      "name": "canForward",
      "outputs": [
        {
          "name": "",
          "type": "bool"
        }
      ],
      "payable": false,
      "stateMutability": "view",
      "type": "function"
    },
    {
      "constant": false,
      "inputs": [
        {
          "name": "_from",
          "type": "address"
        },
        {
          "name": "_to",
          "type": "address"
        },
        {
          "name": "_amount",
          "type": "uint256"
        }
      ],
      "name": "onTransfer",
      "outputs": [
        {
          "name": "",
          "type": "bool"
        }
      ],
      "payable": false,
      "stateMutability": "nonpayable",
      "type": "function"
    },
    {
      "constant": false,
      "inputs": [
        {
          "name": "",
          "type": "address"
        }
      ],
      "name": "proxyPayment",
      "outputs": [
        {
          "name": "",
          "type": "bool"
        }
      ],
      "payable": true,
      "stateMutability": "payable",
      "type": "function"
    },
    {
      "constant": false,
      "inputs": [
        {
          "name": "",
          "type": "address"
        },
        {
          "name": "",
          "type": "address"
        },
        {
          "name": "",
          "type": "uint256"
        }
      ],
      "name": "onApprove",
      "outputs": [
        {
          "name": "",
          "type": "bool"
        }
      ],
      "payable": false,
      "stateMutability": "nonpayable",
      "type": "function"
    },
    {
      "constant": true,
      "inputs": [
        {
          "name": "_token",
          "type": "address"
        }
      ],
      "name": "allowRecoverability",
      "outputs": [
        {
          "name": "",
          "type": "bool"
        }
      ],
      "payable": false,
      "stateMutability": "view",
      "type": "function"
    }
  ],
  "bytecode": "0x60806040526200001d62000023640100000000026401000000009004565b62000309565b60006200003e6200015e640100000000026401000000009004565b146040805190810160405280601881526020017f494e49545f414c52454144595f494e495449414c495a4544000000000000000081525090151562000121576040517f08c379a00000000000000000000000000000000000000000000000000000000081526004018080602001828103825283818151815260200191508051906020019080838360005b83811015620000e5578082015181840152602081019050620000c8565b50505050905090810190601f168015620001135780820380516001836020036101000a031916815260200191505b509250505060405180910390fd5b506200015c7fffffffffffffffffffffffffffffffffffffffffffffffffffffffffffffffff620001ab640100000000026401000000009004565b565b6000620001a67febb05b386a8d34882b8711d156f463690983dc47815980fb82aeeff1aa43579e60010260001916620002f764010000000002620040ea176401000000009004565b905090565b6000620001c66200015e640100000000026401000000009004565b146040805190810160405280601881526020017f494e49545f414c52454144595f494e495449414c495a45440000000000000000815250901515620002a9576040517f08c379a00000000000000000000000000000000000000000000000000000000081526004018080602001828103825283818151815260200191508051906020019080838360005b838110156200026d57808201518184015260208101905062000250565b50505050905090810190601f1680156200029b5780820380516001836020036101000a031916815260200191505b509250505060405180910390fd5b50620002f4817febb05b386a8d34882b8711d156f463690983dc47815980fb82aeeff1aa43579e600102600019166200030264010000000002620050d1179091906401000000009004565b50565b600081549050919050565b8082555050565b6152fc80620003196000396000f3006080604052600436106101d8576000357c0100000000000000000000000000000000000000000000000000000000900463ffffffff1680630803fac0146101dd5780631d7f53111461020c5780632071303b146102785780632914b9bd146102b957806332f0a3b5146103625780633575ca80146103b95780633c31996b146104255780634a39314914610510578063507c53e0146105955780635d9ef52e146105ec578063606e78ef14610647578063704248ec146106a2578063785e9e86146106f95780637e7db6e11461075057806380afdea8146107ab578063830953ab146107de57806389cde9dd146108095780638add3475146108605780638b3dd749146108a157806395bc3bd0146108cc5780639d4941d814610923578063a1658fad14610966578063a479e50814610a12578063a69df4b514610a69578063b930908f14610a80578063c0774df314610ab3578063d4aae0c414610b54578063d948d46814610bab578063da682aeb14610c14578063dd46706414610c99578063de4796ed14610cc6578063edac5f3e14610cf5578063f0c6a6c814610d26578063f48c305414610d67578063fbfa77cf14610db5578063fc0c546a14610e0c578063fc1cd0f914610e63578063fd64eccb14610ecf575b600080fd5b3480156101e957600080fd5b506101f2610efe565b604051808215151515815260200191505060405180910390f35b34801561021857600080fd5b50610221610f29565b6040518080602001828103825283818151815260200191508051906020019060200280838360005b83811015610264578082015181840152602081019050610249565b505050509050019250505060405180910390f35b34801561028457600080fd5b506102a360048036038101908080359060200190929190505050610f81565b6040518082815260200191505060405180910390f35b3480156102c557600080fd5b50610320600480360381019080803590602001908201803590602001908080601f0160208091040260200160405190810160405280939291908181526020018383808284378201915050505050509192919290505050610fa4565b604051808273ffffffffffffffffffffffffffffffffffffffff1673ffffffffffffffffffffffffffffffffffffffff16815260200191505060405180910390f35b34801561036e57600080fd5b506103776110c3565b604051808273ffffffffffffffffffffffffffffffffffffffff1673ffffffffffffffffffffffffffffffffffffffff16815260200191505060405180910390f35b3480156103c557600080fd5b506103ce611170565b6040518080602001828103825283818151815260200191508051906020019060200280838360005b838110156104115780820151818401526020810190506103f6565b505050509050019250505060405180910390f35b34801561043157600080fd5b5061050e600480360381019080803573ffffffffffffffffffffffffffffffffffffffff169060200190929190803573ffffffffffffffffffffffffffffffffffffffff169060200190929190803573ffffffffffffffffffffffffffffffffffffffff169060200190929190803573ffffffffffffffffffffffffffffffffffffffff1690602001909291908035906020019082018035906020019190919293919293908035906020019082018035906020019190919293919293908035906020019082018035906020019190919293919293905050506111c8565b005b34801561051c57600080fd5b5061057b600480360381019080803573ffffffffffffffffffffffffffffffffffffffff169060200190929190803573ffffffffffffffffffffffffffffffffffffffff1690602001909291908035906020019092919050505061167b565b604051808215151515815260200191505060405180910390f35b3480156105a157600080fd5b506105d6600480360381019080803573ffffffffffffffffffffffffffffffffffffffff16906020019092919050505061176f565b6040518082815260200191505060405180910390f35b3480156105f857600080fd5b50610645600480360381019080803573ffffffffffffffffffffffffffffffffffffffff169060200190929190803590602001908201803590602001919091929391929390505050611787565b005b34801561065357600080fd5b50610688600480360381019080803573ffffffffffffffffffffffffffffffffffffffff169060200190929190505050611ebe565b604051808215151515815260200191505060405180910390f35b3480156106ae57600080fd5b506106b7611ede565b604051808273ffffffffffffffffffffffffffffffffffffffff1673ffffffffffffffffffffffffffffffffffffffff16815260200191505060405180910390f35b34801561070557600080fd5b5061070e611f04565b604051808273ffffffffffffffffffffffffffffffffffffffff1673ffffffffffffffffffffffffffffffffffffffff16815260200191505060405180910390f35b34801561075c57600080fd5b50610791600480360381019080803573ffffffffffffffffffffffffffffffffffffffff169060200190929190505050611f2a565b604051808215151515815260200191505060405180910390f35b3480156107b757600080fd5b506107c0611f84565b60405180826000191660001916815260200191505060405180910390f35b3480156107ea57600080fd5b506107f3611fbb565b6040518082815260200191505060405180910390f35b34801561081557600080fd5b5061084a600480360381019080803573ffffffffffffffffffffffffffffffffffffffff169060200190929190505050611fc1565b6040518082815260200191505060405180910390f35b34801561086c57600080fd5b5061088b60048036038101908080359060200190929190505050611fd9565b6040518082815260200191505060405180910390f35b3480156108ad57600080fd5b506108b6611ffc565b6040518082815260200191505060405180910390f35b3480156108d857600080fd5b5061090d600480360381019080803573ffffffffffffffffffffffffffffffffffffffff169060200190929190505050612033565b6040518082815260200191505060405180910390f35b34801561092f57600080fd5b50610964600480360381019080803573ffffffffffffffffffffffffffffffffffffffff16906020019092919050505061204b565b005b34801561097257600080fd5b506109f8600480360381019080803573ffffffffffffffffffffffffffffffffffffffff16906020019092919080356000191690602001909291908035906020019082018035906020019080806020026020016040519081016040528093929190818152602001838360200280828437820191505050505050919291929050505061247d565b604051808215151515815260200191505060405180910390f35b348015610a1e57600080fd5b50610a27612684565b604051808273ffffffffffffffffffffffffffffffffffffffff1673ffffffffffffffffffffffffffffffffffffffff16815260200191505060405180910390f35b348015610a7557600080fd5b50610a7e61279f565b005b348015610a8c57600080fd5b50610a95612e19565b60405180826000191660001916815260200191505060405180910390f35b348015610abf57600080fd5b50610b3a600480360381019080803573ffffffffffffffffffffffffffffffffffffffff169060200190929190803590602001908201803590602001908080601f0160208091040260200160405190810160405280939291908181526020018383808284378201915050505050509192919290505050612e52565b604051808215151515815260200191505060405180910390f35b348015610b6057600080fd5b50610b69612f66565b604051808273ffffffffffffffffffffffffffffffffffffffff1673ffffffffffffffffffffffffffffffffffffffff16815260200191505060405180910390f35b348015610bb757600080fd5b50610c12600480360381019080803590602001908201803590602001908080601f0160208091040260200160405190810160405280939291908181526020018383808284378201915050505050509192919290505050612f9d565b005b348015610c2057600080fd5b50610c7f600480360381019080803573ffffffffffffffffffffffffffffffffffffffff169060200190929190803573ffffffffffffffffffffffffffffffffffffffff16906020019092919080359060200190929190505050613171565b604051808215151515815260200191505060405180910390f35b348015610ca557600080fd5b50610cc46004803603810190808035906020019092919050505061317e565b005b348015610cd257600080fd5b50610cdb613910565b604051808215151515815260200191505060405180910390f35b348015610d0157600080fd5b50610d24600480360381019080803561ffff169060200190929190505050613941565b005b348015610d3257600080fd5b50610d5160048036038101908080359060200190929190505050613c67565b6040518082815260200191505060405180910390f35b610d9b600480360381019080803573ffffffffffffffffffffffffffffffffffffffff169060200190929190505050613c8a565b604051808215151515815260200191505060405180910390f35b348015610dc157600080fd5b50610dca613dc4565b604051808273ffffffffffffffffffffffffffffffffffffffff1673ffffffffffffffffffffffffffffffffffffffff16815260200191505060405180910390f35b348015610e1857600080fd5b50610e21613dea565b604051808273ffffffffffffffffffffffffffffffffffffffff1673ffffffffffffffffffffffffffffffffffffffff16815260200191505060405180910390f35b348015610e6f57600080fd5b50610e78613e0f565b6040518080602001828103825283818151815260200191508051906020019060200280838360005b83811015610ebb578082015181840152602081019050610ea0565b505050509050019250505060405180910390f35b348015610edb57600080fd5b50610ee4613e67565b604051808215151515815260200191505060405180910390f35b600080610f09611ffc565b905060008114158015610f23575080610f20613e70565b10155b91505090565b60606009805480602002602001604051908101604052809291908181526020018280548015610f7757602002820191906000526020600020905b815481526020019060010190808311610f63575b5050505050905090565b600981815481101515610f9057fe5b906000526020600020016000915090505481565b6000610fae612684565b73ffffffffffffffffffffffffffffffffffffffff166304bf2a7f836040518263ffffffff167c01000000000000000000000000000000000000000000000000000000000281526004018080602001828103825283818151815260200191508051906020019080838360005b8381101561103557808201518184015260208101905061101a565b50505050905090810190601f1680156110625780820380516001836020036101000a031916815260200191505b5092505050602060405180830381600087803b15801561108157600080fd5b505af1158015611095573d6000803e3d6000fd5b505050506040513d60208110156110ab57600080fd5b81019080805190602001909291905050509050919050565b60006110cd612f66565b73ffffffffffffffffffffffffffffffffffffffff166332f0a3b56040518163ffffffff167c0100000000000000000000000000000000000000000000000000000000028152600401602060405180830381600087803b15801561113057600080fd5b505af1158015611144573d6000803e3d6000fd5b505050506040513d602081101561115a57600080fd5b8101908080519060200190929190505050905090565b6060600a8054806020026020016040519081016040528092919081815260200182805480156111be57602002820191906000526020600020905b8154815260200190600101908083116111aa575b5050505050905090565b60006111d2613e78565b3073ffffffffffffffffffffffffffffffffffffffff168b73ffffffffffffffffffffffffffffffffffffffff1663f77c47916040518163ffffffff167c0100000000000000000000000000000000000000000000000000000000028152600401602060405180830381600087803b15801561124d57600080fd5b505af1158015611261573d6000803e3d6000fd5b505050506040513d602081101561127757600080fd5b810190808051906020019092919050505073ffffffffffffffffffffffffffffffffffffffff16146040805190810160405280601381526020017f544d5f544f4b454e5f434f4e54524f4c4c45520000000000000000000000000081525090151561137d576040517f08c379a00000000000000000000000000000000000000000000000000000000081526004018080602001828103825283818151815260200191508051906020019080838360005b83811015611342578082015181840152602081019050611327565b50505050905090810190601f16801561136f5780820380516001836020036101000a031916815260200191505b509250505060405180910390fd5b50848490508787905014151561139257600080fd5b82829050858590501415156113a657600080fd5b8a6000806101000a81548173ffffffffffffffffffffffffffffffffffffffff021916908373ffffffffffffffffffffffffffffffffffffffff1602179055506000809054906101000a900473ffffffffffffffffffffffffffffffffffffffff1673ffffffffffffffffffffffffffffffffffffffff1663f41e60c560006040518263ffffffff167c01000000000000000000000000000000000000000000000000000000000281526004018082151515158152602001915050600060405180830381600087803b15801561147b57600080fd5b505af115801561148f573d6000803e3d6000fd5b5050505089600160006101000a81548173ffffffffffffffffffffffffffffffffffffffff021916908373ffffffffffffffffffffffffffffffffffffffff16021790555088600260006101000a81548173ffffffffffffffffffffffffffffffffffffffff021916908373ffffffffffffffffffffffffffffffffffffffff16021790555087600360006101000a81548173ffffffffffffffffffffffffffffffffffffffff021916908373ffffffffffffffffffffffffffffffffffffffff16021790555086866009919061156792919061525e565b508484600a919061157992919061525e565b508282600b919061158b92919061525e565b506000809054906101000a900473ffffffffffffffffffffffffffffffffffffffff1673ffffffffffffffffffffffffffffffffffffffff1663313ce5676040518163ffffffff167c0100000000000000000000000000000000000000000000000000000000028152600401602060405180830381600087803b15801561161157600080fd5b505af1158015611625573d6000803e3d6000fd5b505050506040513d602081101561163b57600080fd5b810190808051906020019092919050505060ff16905061166881600a0a6001613fa590919063ffffffff16565b6008819055505050505050505050505050565b6000611685610efe565b6040805190810160405280601481526020017f494e49545f4e4f545f494e495449414c495a4544000000000000000000000000815250901515611763576040517f08c379a00000000000000000000000000000000000000000000000000000000081526004018080602001828103825283818151815260200191508051906020019080838360005b8381101561172857808201518184015260208101905061170d565b50505050905090810190601f1680156117555780820380516001836020036101000a031916815260200191505b509250505060405180910390fd5b50600090509392505050565b60056020528060005260406000206000915090505481565b60008060405180807f4255524e5f524f4c450000000000000000000000000000000000000000000000815250600901905060405180910390206117c9866140b7565b6117d433838361247d565b6040805190810160405280600f81526020017f4150505f415554485f4641494c454400000000000000000000000000000000008152509015156118b2576040517f08c379a00000000000000000000000000000000000000000000000000000000081526004018080602001828103825283818151815260200191508051906020019080838360005b8381101561187757808201518184015260208101905061185c565b50505050905090810190601f1680156118a45780820380516001836020036101000a031916815260200191505b509250505060405180910390fd5b506000809054906101000a900473ffffffffffffffffffffffffffffffffffffffff1673ffffffffffffffffffffffffffffffffffffffff166370a08231886040518263ffffffff167c0100000000000000000000000000000000000000000000000000000000028152600401808273ffffffffffffffffffffffffffffffffffffffff1673ffffffffffffffffffffffffffffffffffffffff168152602001915050602060405180830381600087803b15801561196f57600080fd5b505af1158015611983573d6000803e3d6000fd5b505050506040513d602081101561199957600080fd5b81019080805190602001909291905050509350600084111515611a24576040517f08c379a000000000000000000000000000000000000000000000000000000000815260040180806020018281038252601a8152602001807f5573657220686173206e6f20746f6b656e7320746f206275726e00000000000081525060200191505060405180910390fd5b6000600760008973ffffffffffffffffffffffffffffffffffffffff1673ffffffffffffffffffffffffffffffffffffffff168152602001908152602001600020541115611d1e57600760008873ffffffffffffffffffffffffffffffffffffffff1673ffffffffffffffffffffffffffffffffffffffff168152602001908152602001600020549250600760008873ffffffffffffffffffffffffffffffffffffffff1673ffffffffffffffffffffffffffffffffffffffff16815260200190815260200160002060009055600160009054906101000a900473ffffffffffffffffffffffffffffffffffffffff1673ffffffffffffffffffffffffffffffffffffffff1663095ea7b3600360009054906101000a900473ffffffffffffffffffffffffffffffffffffffff16856040518363ffffffff167c0100000000000000000000000000000000000000000000000000000000028152600401808373ffffffffffffffffffffffffffffffffffffffff1673ffffffffffffffffffffffffffffffffffffffff16815260200182815260200192505050602060405180830381600087803b158015611bd857600080fd5b505af1158015611bec573d6000803e3d6000fd5b505050506040513d6020811015611c0257600080fd5b81019080805190602001909291905050501515611c1e57600080fd5b600360009054906101000a900473ffffffffffffffffffffffffffffffffffffffff1673ffffffffffffffffffffffffffffffffffffffff166347e7ef24600160009054906101000a900473ffffffffffffffffffffffffffffffffffffffff16856040518363ffffffff167c0100000000000000000000000000000000000000000000000000000000028152600401808373ffffffffffffffffffffffffffffffffffffffff1673ffffffffffffffffffffffffffffffffffffffff16815260200182815260200192505050600060405180830381600087803b158015611d0557600080fd5b505af1158015611d19573d6000803e3d6000fd5b505050505b6000809054906101000a900473ffffffffffffffffffffffffffffffffffffffff1673ffffffffffffffffffffffffffffffffffffffff1663d3ce77fe88866040518363ffffffff167c0100000000000000000000000000000000000000000000000000000000028152600401808373ffffffffffffffffffffffffffffffffffffffff1673ffffffffffffffffffffffffffffffffffffffff16815260200182815260200192505050602060405180830381600087803b158015611de257600080fd5b505af1158015611df6573d6000803e3d6000fd5b505050506040513d6020811015611e0c57600080fd5b81019080805190602001909291905050501515611e2857600080fd5b7ffad31924d655455395c87544c8aa1ffdb5a7505a22a3c2e03f28003b6556a75f87858888604051808573ffffffffffffffffffffffffffffffffffffffff1673ffffffffffffffffffffffffffffffffffffffff16815260200184815260200180602001828103825284848281815260200192508082843782019150509550505050505060405180910390a150505050505050565b60046020528060005260406000206000915054906101000a900460ff1681565b600260009054906101000a900473ffffffffffffffffffffffffffffffffffffffff1681565b600160009054906101000a900473ffffffffffffffffffffffffffffffffffffffff1681565b60008060009054906101000a900473ffffffffffffffffffffffffffffffffffffffff1673ffffffffffffffffffffffffffffffffffffffff168273ffffffffffffffffffffffffffffffffffffffff1614159050919050565b6000611fb67fd625496217aa6a3453eecb9c3489dc5a53e6c67b444329ea2b2cbc9ff547639b600102600019166140df565b905090565b60085481565b60066020528060005260406000206000915090505481565b600a81815481101515611fe857fe5b906000526020600020016000915090505481565b600061202e7febb05b386a8d34882b8711d156f463690983dc47815980fb82aeeff1aa43579e600102600019166140ea565b905090565b60076020528060005260406000206000915090505481565b60008061205783611f2a565b6040805190810160405280601281526020017f5245434f5645525f444953414c4c4f5745440000000000000000000000000000815250901515612135576040517f08c379a00000000000000000000000000000000000000000000000000000000081526004018080602001828103825283818151815260200191508051906020019080838360005b838110156120fa5780820151818401526020810190506120df565b50505050905090810190601f1680156121275780820380516001836020036101000a031916815260200191505b509250505060405180910390fd5b5061213e6110c3565b9150612149826140f5565b6040805190810160405280601a81526020017f5245434f5645525f5641554c545f4e4f545f434f4e5452414354000000000000815250901515612227576040517f08c379a00000000000000000000000000000000000000000000000000000000081526004018080602001828103825283818151815260200191508051906020019080838360005b838110156121ec5780820151818401526020810190506121d1565b50505050905090810190601f1680156122195780820380516001836020036101000a031916815260200191505b509250505060405180910390fd5b50600073ffffffffffffffffffffffffffffffffffffffff168373ffffffffffffffffffffffffffffffffffffffff1614156122c0578173ffffffffffffffffffffffffffffffffffffffff166108fc3073ffffffffffffffffffffffffffffffffffffffff16319081150290604051600060405180830381858888f193505050501580156122ba573d6000803e3d6000fd5b50612478565b8273ffffffffffffffffffffffffffffffffffffffff166370a08231306040518263ffffffff167c0100000000000000000000000000000000000000000000000000000000028152600401808273ffffffffffffffffffffffffffffffffffffffff1673ffffffffffffffffffffffffffffffffffffffff168152602001915050602060405180830381600087803b15801561235b57600080fd5b505af115801561236f573d6000803e3d6000fd5b505050506040513d602081101561238557600080fd5b810190808051906020019092919050505090508273ffffffffffffffffffffffffffffffffffffffff1663a9059cbb83836040518363ffffffff167c0100000000000000000000000000000000000000000000000000000000028152600401808373ffffffffffffffffffffffffffffffffffffffff1673ffffffffffffffffffffffffffffffffffffffff16815260200182815260200192505050602060405180830381600087803b15801561243b57600080fd5b505af115801561244f573d6000803e3d6000fd5b505050506040513d602081101561246557600080fd5b8101908080519060200190929190505050505b505050565b6000806060600061248c610efe565b151561249b576000935061267a565b6124a3612f66565b9250600073ffffffffffffffffffffffffffffffffffffffff168373ffffffffffffffffffffffffffffffffffffffff1614156124e3576000935061267a565b602085510290508491508082528273ffffffffffffffffffffffffffffffffffffffff1663fdef9106883089866040518563ffffffff167c0100000000000000000000000000000000000000000000000000000000028152600401808573ffffffffffffffffffffffffffffffffffffffff1673ffffffffffffffffffffffffffffffffffffffff1681526020018473ffffffffffffffffffffffffffffffffffffffff1673ffffffffffffffffffffffffffffffffffffffff168152602001836000191660001916815260200180602001828103825283818151815260200191508051906020019080838360005b838110156125ed5780820151818401526020810190506125d2565b50505050905090810190601f16801561261a5780820380516001836020036101000a031916815260200191505b5095505050505050602060405180830381600087803b15801561263c57600080fd5b505af1158015612650573d6000803e3d6000fd5b505050506040513d602081101561266657600080fd5b810190808051906020019092919050505093505b5050509392505050565b60008061268f612f66565b73ffffffffffffffffffffffffffffffffffffffff1663be00bbd87fd6f028ca0e8edb4a8c9757ca4fdccab25fa1e0317da1188108f7d2dee14902fb6001027fddbcfd564f642ab5627cf68b9b7d374fb4f8a36e941a75d89c87998cef03bd616001026040518363ffffffff167c0100000000000000000000000000000000000000000000000000000000028152600401808360001916600019168152602001826000191660001916815260200192505050602060405180830381600087803b15801561275b57600080fd5b505af115801561276f573d6000803e3d6000fd5b505050506040513d602081101561278557600080fd5b810190808051906020019092919050505090508091505090565b600042600660003373ffffffffffffffffffffffffffffffffffffffff1673ffffffffffffffffffffffffffffffffffffffff16815260200190815260200160002054101515612857576040517f08c379a00000000000000000000000000000000000000000000000000000000081526004018080602001828103825260178152602001807f546f6b656e7320617265207374696c6c206c6f636b656400000000000000000081525060200191505060405180910390fd5b600660003373ffffffffffffffffffffffffffffffffffffffff1673ffffffffffffffffffffffffffffffffffffffff16815260200190815260200160002060009055600560003373ffffffffffffffffffffffffffffffffffffffff1673ffffffffffffffffffffffffffffffffffffffff1681526020019081526020016000206000905560009050600460003373ffffffffffffffffffffffffffffffffffffffff1673ffffffffffffffffffffffffffffffffffffffff16815260200190815260200160002060009054906101000a900460ff16156129395760085490505b6000809054906101000a900473ffffffffffffffffffffffffffffffffffffffff1673ffffffffffffffffffffffffffffffffffffffff1663d3ce77fe33612a80846000809054906101000a900473ffffffffffffffffffffffffffffffffffffffff1673ffffffffffffffffffffffffffffffffffffffff166370a08231336040518263ffffffff167c0100000000000000000000000000000000000000000000000000000000028152600401808273ffffffffffffffffffffffffffffffffffffffff1673ffffffffffffffffffffffffffffffffffffffff168152602001915050602060405180830381600087803b158015612a3757600080fd5b505af1158015612a4b573d6000803e3d6000fd5b505050506040513d6020811015612a6157600080fd5b810190808051906020019092919050505061414790919063ffffffff16565b6040518363ffffffff167c0100000000000000000000000000000000000000000000000000000000028152600401808373ffffffffffffffffffffffffffffffffffffffff1673ffffffffffffffffffffffffffffffffffffffff16815260200182815260200192505050602060405180830381600087803b158015612b0557600080fd5b505af1158015612b19573d6000803e3d6000fd5b505050506040513d6020811015612b2f57600080fd5b81019080805190602001909291905050501515612bb4576040517f08c379a00000000000000000000000000000000000000000000000000000000081526004018080602001828103825260148152602001807f546f6b656e73206e6f742064657374726f79656400000000000000000000000081525060200191505060405180910390fd5b600160009054906101000a900473ffffffffffffffffffffffffffffffffffffffff1673ffffffffffffffffffffffffffffffffffffffff1663a9059cbb33600760003373ffffffffffffffffffffffffffffffffffffffff1673ffffffffffffffffffffffffffffffffffffffff168152602001908152602001600020546040518363ffffffff167c0100000000000000000000000000000000000000000000000000000000028152600401808373ffffffffffffffffffffffffffffffffffffffff1673ffffffffffffffffffffffffffffffffffffffff16815260200182815260200192505050602060405180830381600087803b158015612cb857600080fd5b505af1158015612ccc573d6000803e3d6000fd5b505050506040513d6020811015612ce257600080fd5b81019080805190602001909291905050501515612d67576040517f08c379a00000000000000000000000000000000000000000000000000000000081526004018080602001828103825260128152602001807f4552433230206e6f742072657475726e6564000000000000000000000000000081525060200191505060405180910390fd5b600760003373ffffffffffffffffffffffffffffffffffffffff1673ffffffffffffffffffffffffffffffffffffffff168152602001908152602001600020600090557fac87f20a77d28ee8bbb58ec87ea8fa968b3393efae1a368fd50b767c2847391c336000604051808373ffffffffffffffffffffffffffffffffffffffff1673ffffffffffffffffffffffffffffffffffffffff1681526020018281526020019250505060405180910390a150565b60405180807f4255524e5f524f4c4500000000000000000000000000000000000000000000008152506009019050604051809103902081565b6000612e5c610efe565b8015612f5e575060008060009054906101000a900473ffffffffffffffffffffffffffffffffffffffff1673ffffffffffffffffffffffffffffffffffffffff166370a08231856040518263ffffffff167c0100000000000000000000000000000000000000000000000000000000028152600401808273ffffffffffffffffffffffffffffffffffffffff1673ffffffffffffffffffffffffffffffffffffffff168152602001915050602060405180830381600087803b158015612f2157600080fd5b505af1158015612f35573d6000803e3d6000fd5b505050506040513d6020811015612f4b57600080fd5b8101908080519060200190929190505050115b905092915050565b6000612f987f4172f0f7d2289153072b0a6ca36959e0cbe2efc3afe50fc81636caa96338137b6001026000191661423c565b905090565b606080612faa3384612e52565b6040805190810160405280601281526020017f544d5f43414e5f4e4f545f464f52574152440000000000000000000000000000815250901515613088576040517f08c379a00000000000000000000000000000000000000000000000000000000081526004018080602001828103825283818151815260200191508051906020019080838360005b8381101561304d578082015181840152602081019050613032565b50505050905090810190601f16801561307a5780820380516001836020036101000a031916815260200191505b509250505060405180910390fd5b5060006040519080825280601f01601f1916602001820160405280156130bd5781602001602082028038833980820191505090505b50915060016040519080825280602002602001820160405280156130f05781602001602082028038833980820191505090505b5090506000809054906101000a900473ffffffffffffffffffffffffffffffffffffffff1681600081518110151561312457fe5b9060200190602002019073ffffffffffffffffffffffffffffffffffffffff16908173ffffffffffffffffffffffffffffffffffffffff168152505061316b838383614247565b50505050565b6000600190509392505050565b60008060008060009050600460003373ffffffffffffffffffffffffffffffffffffffff1673ffffffffffffffffffffffffffffffffffffffff16815260200190815260200160002060009054906101000a900460ff16156131e05760085490505b806000809054906101000a900473ffffffffffffffffffffffffffffffffffffffff1673ffffffffffffffffffffffffffffffffffffffff166370a08231336040518263ffffffff167c0100000000000000000000000000000000000000000000000000000000028152600401808273ffffffffffffffffffffffffffffffffffffffff1673ffffffffffffffffffffffffffffffffffffffff168152602001915050602060405180830381600087803b15801561329d57600080fd5b505af11580156132b1573d6000803e3d6000fd5b505050506040513d60208110156132c757600080fd5b81019080805190602001909291905050501015151561334e576040517f08c379a00000000000000000000000000000000000000000000000000000000081526004018080602001828103825260088152602001807f5961206275726e7400000000000000000000000000000000000000000000000081525060200191505060405180910390fd5b806000809054906101000a900473ffffffffffffffffffffffffffffffffffffffff1673ffffffffffffffffffffffffffffffffffffffff166370a08231336040518263ffffffff167c0100000000000000000000000000000000000000000000000000000000028152600401808273ffffffffffffffffffffffffffffffffffffffff1673ffffffffffffffffffffffffffffffffffffffff168152602001915050602060405180830381600087803b15801561340b57600080fd5b505af115801561341f573d6000803e3d6000fd5b505050506040513d602081101561343557600080fd5b810190808051906020019092919050505014156135735761345585614b44565b80945081955082965050505042600560003373ffffffffffffffffffffffffffffffffffffffff1673ffffffffffffffffffffffffffffffffffffffff1681526020019081526020016000208190555081600560003373ffffffffffffffffffffffffffffffffffffffff1673ffffffffffffffffffffffffffffffffffffffff1681526020019081526020016000205401600660003373ffffffffffffffffffffffffffffffffffffffff1673ffffffffffffffffffffffffffffffffffffffff1681526020019081526020016000208190555082600760003373ffffffffffffffffffffffffffffffffffffffff1673ffffffffffffffffffffffffffffffffffffffff1681526020019081526020016000208190555061359e565b61358962278d0086613fa590919063ffffffff16565b91506135953383614c07565b80945081955050505b6000841115156135ad57600080fd5b600160009054906101000a900473ffffffffffffffffffffffffffffffffffffffff1673ffffffffffffffffffffffffffffffffffffffff166323b872dd3330866040518463ffffffff167c0100000000000000000000000000000000000000000000000000000000028152600401808473ffffffffffffffffffffffffffffffffffffffff1673ffffffffffffffffffffffffffffffffffffffff1681526020018373ffffffffffffffffffffffffffffffffffffffff1673ffffffffffffffffffffffffffffffffffffffff1681526020018281526020019350505050602060405180830381600087803b1580156136a657600080fd5b505af11580156136ba573d6000803e3d6000fd5b505050506040513d60208110156136d057600080fd5b81019080805190602001909291905050501515613755576040517f08c379a000000000000000000000000000000000000000000000000000000000815260040180806020018281038252601f8152602001807f5472616e736665722066726f6d206d73672073656e646572206661696c65640081525060200191505060405180910390fd5b6000809054906101000a900473ffffffffffffffffffffffffffffffffffffffff1673ffffffffffffffffffffffffffffffffffffffff1663827f32c033866040518363ffffffff167c0100000000000000000000000000000000000000000000000000000000028152600401808373ffffffffffffffffffffffffffffffffffffffff1673ffffffffffffffffffffffffffffffffffffffff16815260200182815260200192505050602060405180830381600087803b15801561381957600080fd5b505af115801561382d573d6000803e3d6000fd5b505050506040513d602081101561384357600080fd5b8101908080519060200190929190505050151561385f57600080fd5b7fac87f20a77d28ee8bbb58ec87ea8fa968b3393efae1a368fd50b767c2847391c33600760003373ffffffffffffffffffffffffffffffffffffffff1673ffffffffffffffffffffffffffffffffffffffff16815260200190815260200160002054604051808373ffffffffffffffffffffffffffffffffffffffff1673ffffffffffffffffffffffffffffffffffffffff1681526020018281526020019250505060405180910390a15050505050565b60007fffffffffffffffffffffffffffffffffffffffffffffffffffffffffffffffff61393b611ffc565b14905090565b61394b3382614fb7565b15156139e5576040517f08c379a00000000000000000000000000000000000000000000000000000000081526004018080602001828103825260278152602001807f55736572206e6f7420617574686f72697a656420746f20636c61696d20616e7981526020017f20746f6b656e730000000000000000000000000000000000000000000000000081525060400191505060405180910390fd5b600460003373ffffffffffffffffffffffffffffffffffffffff1673ffffffffffffffffffffffffffffffffffffffff16815260200190815260200160002060009054906101000a900460ff16151515613aa7576040517f08c379a000000000000000000000000000000000000000000000000000000000815260040180806020018281038252601f8152602001807f557365722068617320616c726561647920636c61696d656420746f6b656e730081525060200191505060405180910390fd5b6001600460003373ffffffffffffffffffffffffffffffffffffffff1673ffffffffffffffffffffffffffffffffffffffff16815260200190815260200160002060006101000a81548160ff0219169083151502179055506000809054906101000a900473ffffffffffffffffffffffffffffffffffffffff1673ffffffffffffffffffffffffffffffffffffffff1663827f32c0336008546040518363ffffffff167c0100000000000000000000000000000000000000000000000000000000028152600401808373ffffffffffffffffffffffffffffffffffffffff1673ffffffffffffffffffffffffffffffffffffffff16815260200182815260200192505050602060405180830381600087803b158015613bc557600080fd5b505af1158015613bd9573d6000803e3d6000fd5b505050506040513d6020811015613bef57600080fd5b8101908080519060200190929190505050507f689e9fbdf844fc04557a4a9000a12d7e50c0ae7e1f21600e307bf55ea92afa0733604051808273ffffffffffffffffffffffffffffffffffffffff1673ffffffffffffffffffffffffffffffffffffffff16815260200191505060405180910390a150565b600b81815481101515613c7657fe5b906000526020600020016000915090505481565b60008060009054906101000a900473ffffffffffffffffffffffffffffffffffffffff1673ffffffffffffffffffffffffffffffffffffffff163373ffffffffffffffffffffffffffffffffffffffff16146040805190810160405280601d81526020017f544d5f50524f58595f5041594d454e545f57524f4e475f53454e444552000000815250901515613dba576040517f08c379a00000000000000000000000000000000000000000000000000000000081526004018080602001828103825283818151815260200191508051906020019080838360005b83811015613d7f578082015181840152602081019050613d64565b50505050905090810190601f168015613dac5780820380516001836020036101000a031916815260200191505b509250505060405180910390fd5b5060009050919050565b600360009054906101000a900473ffffffffffffffffffffffffffffffffffffffff1681565b6000809054906101000a900473ffffffffffffffffffffffffffffffffffffffff1681565b6060600b805480602002602001604051908101604052809291908181526020018280548015613e5d57602002820191906000526020600020905b815481526020019060010190808311613e49575b5050505050905090565b60006001905090565b600043905090565b6000613e82611ffc565b146040805190810160405280601881526020017f494e49545f414c52454144595f494e495449414c495a45440000000000000000815250901515613f61576040517f08c379a00000000000000000000000000000000000000000000000000000000081526004018080602001828103825283818151815260200191508051906020019080838360005b83811015613f26578082015181840152602081019050613f0b565b50505050905090810190601f168015613f535780820380516001836020036101000a031916815260200191505b509250505060405180910390fd5b50613fa3613f6d613e70565b7febb05b386a8d34882b8711d156f463690983dc47815980fb82aeeff1aa43579e600102600019166150d190919063ffffffff16565b565b6000806000841415613fba57600091506140b0565b8284029050828482811515613fcb57fe5b04146040805190810160405280601181526020017f4d4154485f4d554c5f4f564552464c4f570000000000000000000000000000008152509015156140ab576040517f08c379a00000000000000000000000000000000000000000000000000000000081526004018080602001828103825283818151815260200191508051906020019080838360005b83811015614070578082015181840152602081019050614055565b50505050905090810190601f16801561409d5780820380516001836020036101000a031916815260200191505b509250505060405180910390fd5b508091505b5092915050565b60606140d88273ffffffffffffffffffffffffffffffffffffffff166150d8565b9050919050565b600081549050919050565b600081549050919050565b600080600073ffffffffffffffffffffffffffffffffffffffff168373ffffffffffffffffffffffffffffffffffffffff1614156141365760009150614141565b823b90506000811191505b50919050565b600080838311156040805190810160405280601281526020017f4d4154485f5355425f554e444552464c4f57000000000000000000000000000081525090151561422c576040517f08c379a00000000000000000000000000000000000000000000000000000000081526004018080602001828103825283818151815260200191508051906020019080838360005b838110156141f15780820151818401526020810190506141d6565b50505050905090810190601f16801561421e5780820380516001836020036101000a031916815260200191505b509250505060405180910390fd5b5082840390508091505092915050565b600081549050919050565b6060600080606080614257610efe565b6040805190810160405280601481526020017f494e49545f4e4f545f494e495449414c495a4544000000000000000000000000815250901515614335576040517f08c379a00000000000000000000000000000000000000000000000000000000081526004018080602001828103825283818151815260200191508051906020019080838360005b838110156142fa5780820151818401526020810190506142df565b50505050905090810190601f1680156143275780820380516001836020036101000a031916815260200191505b509250505060405180910390fd5b50600080614341612f66565b915061434b611f84565b90506143568a610fa4565b9550600073ffffffffffffffffffffffffffffffffffffffff168673ffffffffffffffffffffffffffffffffffffffff1614156040805190810160405280601b81526020017f45564d52554e5f4558454355544f525f554e415641494c41424c450000000000815250901515614467576040517f08c379a00000000000000000000000000000000000000000000000000000000081526004018080602001828103825283818151815260200191508051906020019080838360005b8381101561442c578082015181840152602081019050614411565b50505050905090810190601f1680156144595780820380516001836020036101000a031916815260200191505b509250505060405180910390fd5b508573ffffffffffffffffffffffffffffffffffffffff1663279cea3590507c0100000000000000000000000000000000000000000000000000000000029450848a8a8a60405160240180806020018060200180602001848103845287818151815260200191508051906020019080838360005b838110156144f65780820151818401526020810190506144db565b50505050905090810190601f1680156145235780820380516001836020036101000a031916815260200191505b50848103835286818151815260200191508051906020019080838360005b8381101561455c578082015181840152602081019050614541565b50505050905090810190601f1680156145895780820380516001836020036101000a031916815260200191505b50848103825285818151815260200191508051906020019060200280838360005b838110156145c55780820151818401526020810190506145aa565b505050509050019650505050505050604051602081830303815290604052907bffffffffffffffffffffffffffffffffffffffffffffffffffffffff19166020820180517bffffffffffffffffffffffffffffffffffffffffffffffffffffffff838183161783525050505093508573ffffffffffffffffffffffffffffffffffffffff168460405180828051906020019080838360005b8381101561467857808201518184015260208101905061465d565b50505050905090810190601f1680156146a55780820380516001836020036101000a031916815260200191505b50915050600060405180830381855af49150506040805190810160405280601981526020017f45564d52554e5f455845435554494f4e5f524556455254454400000000000000815250901515614796576040517f08c379a00000000000000000000000000000000000000000000000000000000081526004018080602001828103825283818151815260200191508051906020019080838360005b8381101561475b578082015181840152602081019050614740565b50505050905090810190601f1680156147885780820380516001836020036101000a031916815260200191505b509250505060405180910390fd5b5061479f615130565b92508573ffffffffffffffffffffffffffffffffffffffff167f5229a5dba83a54ae8cb5b51bdd6de9474cacbe9dd332f5185f3a4f4f2e3f4ad98b8b8660405180806020018060200180602001848103845287818151815260200191508051906020019080838360005b83811015614824578082015181840152602081019050614809565b50505050905090810190601f1680156148515780820380516001836020036101000a031916815260200191505b50848103835286818151815260200191508051906020019080838360005b8381101561488a57808201518184015260208101905061486f565b50505050905090810190601f1680156148b75780820380516001836020036101000a031916815260200191505b50848103825285818151815260200191508051906020019080838360005b838110156148f05780820151818401526020810190506148d5565b50505050905090810190601f16801561491d5780820380516001836020036101000a031916815260200191505b50965050505050505060405180910390a28296508173ffffffffffffffffffffffffffffffffffffffff16614950612f66565b73ffffffffffffffffffffffffffffffffffffffff16146040805190810160405280601f81526020017f45564d52554e5f50524f5445435445445f53544154455f4d4f44494649454400815250901515614a45576040517f08c379a00000000000000000000000000000000000000000000000000000000081526004018080602001828103825283818151815260200191508051906020019080838360005b83811015614a0a5780820151818401526020810190506149ef565b50505050905090810190601f168015614a375780820380516001836020036101000a031916815260200191505b509250505060405180910390fd5b508060001916614a53611f84565b60001916146040805190810160405280601f81526020017f45564d52554e5f50524f5445435445445f53544154455f4d4f44494649454400815250901515614b36576040517f08c379a00000000000000000000000000000000000000000000000000000000081526004018080602001828103825283818151815260200191508051906020019080838360005b83811015614afb578082015181840152602081019050614ae0565b50505050905090810190601f168015614b285780820380516001836020036101000a031916815260200191505b509250505060405180910390fd5b505050505050509392505050565b6000806000806001600a805490500390505b600081101515614bfe57600a81815481101515614b6f57fe5b906000526020600020015485101515614bf057600b81815481101515614b9157fe5b9060005260206000200154600982815481101515614bab57fe5b9060005260206000200154614be562278d00600a85815481101515614bcc57fe5b9060005260206000200154613fa590919063ffffffff16565b935093509350614bff565b808060019003915050614b56565b5b509193909250565b600080600080600080600080600560008b73ffffffffffffffffffffffffffffffffffffffff1673ffffffffffffffffffffffffffffffffffffffff16815260200190815260200160002054111515614cee576040517f08c379a000000000000000000000000000000000000000000000000000000000815260040180806020018281038252602f8152602001807f5573657220686173206e6f742073746172746564206c6f636b696e672c206e6f81526020017f7468696e6720746f20757064617465000000000000000000000000000000000081525060400191505060405180910390fd5b614d0c614d0762278d008a61516090919063ffffffff16565b614b44565b94509450945082600560008b73ffffffffffffffffffffffffffffffffffffffff1673ffffffffffffffffffffffffffffffffffffffff1681526020019081526020016000205401600660008b73ffffffffffffffffffffffffffffffffffffffff1673ffffffffffffffffffffffffffffffffffffffff16815260200190815260200160002081905550614de9600760008b73ffffffffffffffffffffffffffffffffffffffff1673ffffffffffffffffffffffffffffffffffffffff168152602001908152602001600020548561414790919063ffffffff16565b915083600760008b73ffffffffffffffffffffffffffffffffffffffff1673ffffffffffffffffffffffffffffffffffffffff1681526020019081526020016000208190555060009050600460008a73ffffffffffffffffffffffffffffffffffffffff1673ffffffffffffffffffffffffffffffffffffffff16815260200190815260200160002060009054906101000a900460ff1615614e8b5760085490505b614fa6614f97826000809054906101000a900473ffffffffffffffffffffffffffffffffffffffff1673ffffffffffffffffffffffffffffffffffffffff166370a082318d6040518263ffffffff167c0100000000000000000000000000000000000000000000000000000000028152600401808273ffffffffffffffffffffffffffffffffffffffff1673ffffffffffffffffffffffffffffffffffffffff168152602001915050602060405180830381600087803b158015614f4e57600080fd5b505af1158015614f62573d6000803e3d6000fd5b505050506040513d6020811015614f7857600080fd5b810190808051906020019092919050505061414790919063ffffffff16565b8661414790919063ffffffff16565b829650965050505050509250929050565b600080600260009054906101000a900473ffffffffffffffffffffffffffffffffffffffff1673ffffffffffffffffffffffffffffffffffffffff1663cf5e36df84866040518363ffffffff167c0100000000000000000000000000000000000000000000000000000000028152600401808361ffff1661ffff1681526020018273ffffffffffffffffffffffffffffffffffffffff1673ffffffffffffffffffffffffffffffffffffffff16815260200192505050602060405180830381600087803b15801561508757600080fd5b505af115801561509b573d6000803e3d6000fd5b505050506040513d60208110156150b157600080fd5b810190808051906020019092919050505090506000811191505092915050565b8082555050565b6060600160405190808252806020026020018201604052801561510a5781602001602082028038833980820191505090505b5090508181600081518110151561511d57fe5b9060200190602002018181525050919050565b60603d8060008114615157576040519250602082018301604052602082036020843e615158565b5b505080905090565b600080600083116040805190810160405280600d81526020017f4d4154485f4449565f5a45524f00000000000000000000000000000000000000815250901515615245576040517f08c379a00000000000000000000000000000000000000000000000000000000081526004018080602001828103825283818151815260200191508051906020019080838360005b8381101561520a5780820151818401526020810190506151ef565b50505050905090810190601f1680156152375780820380516001836020036101000a031916815260200191505b509250505060405180910390fd5b50828481151561525157fe5b0490508091505092915050565b82805482825590600052602060002090810192821561529a579160200282015b8281111561529957823582559160200191906001019061527e565b5b5090506152a791906152ab565b5090565b6152cd91905b808211156152c95760008160009055506001016152b1565b5090565b905600a165627a7a72305820ec82eb31f4d45d9b2c430951804f02114adabd31e787f8342af48fdee05144990029",
  "source": "/*\n * SPDX-License-Identitifer:    GPL-3.0-or-later\n */\n\n/* solium-disable function-order */\n\npragma solidity 0.4.24;\n\nimport \"@aragon/os/contracts/apps/AragonApp.sol\";\nimport \"@aragon/os/contracts/common/IForwarder.sol\";\nimport \"@aragon/os/contracts/common/Uint256Helpers.sol\";\n\nimport \"@aragon/os/contracts/lib/token/ERC20.sol\";\nimport \"@aragon/os/contracts/lib/math/SafeMath.sol\";\n\nimport \"@aragon/apps-shared-minime/contracts/ITokenController.sol\";\nimport \"@aragon/apps-shared-minime/contracts/MiniMeToken.sol\";\n\nimport \"@aragon/apps-vault/contracts/Vault.sol\";\n\ninterface TokenSaleInterface {\n  function getWeiContributed(uint16 _day, address _contributor) external view returns (uint256);\n}\n\ncontract MyBitTokenLocker is ITokenController, IForwarder, AragonApp {\n    using SafeMath for uint256;\n    using Uint256Helpers for uint256;\n\n    //bytes32 public constant LOCK_ROLE = keccak256(\"LOCK_ROLE\");\n    //bytes32 public constant UNLOCK_ROLE = keccak256(\"UNLOCK_ROLE\");\n    bytes32 public constant BURN_ROLE = keccak256(\"BURN_ROLE\");\n\n    string private constant ERROR_TOKEN_CONTROLLER = \"TM_TOKEN_CONTROLLER\";\n    string private constant ERROR_MINT_BALANCE_INCREASE_NOT_ALLOWED = \"TM_MINT_BAL_INC_NOT_ALLOWED\";\n    string private constant ERROR_CAN_NOT_FORWARD = \"TM_CAN_NOT_FORWARD\";\n    string private constant ERROR_PROXY_PAYMENT_WRONG_SENDER = \"TM_PROXY_PAYMENT_WRONG_SENDER\";\n\n    uint256 private constant MONTH = 2592000; //30 days in seconds\n    uint256 private constant CLAIM_TOKENS = 1;\n\n    MiniMeToken public token;\n    ERC20 public erc20;\n    TokenSaleInterface public tokensale;\n    Vault public vault;\n\n    mapping(address => bool) public claimedToken;\n    mapping(address => uint256) public lockStart;\n    mapping(address => uint256) public lockExpiry;\n    mapping(address => uint256) public lockAmount;\n    uint256 public claimAmount;\n    uint256[] public lockAmounts;\n    uint256[] public lockIntervals;\n    uint256[] public tokenIntervals;\n\n    /**\n    * @notice Initialize Token Manager for `_token.symbol(): string`, whose tokens are `transferable ? 'not' : ''` transferable`_maxAccountTokens > 0 ? ' and limited to a maximum of ' + @tokenAmount(_token, _maxAccountTokens, false) + ' per account' : ''`\n    * @param _token The MiniMetoken that is used for voting in the DAO\n    * @param _erc20 The ERC20 token that is locked in order to receive voting tokens\n    * @param _lockAmounts An array of amounts ERC20 that is required to receive voting tokens\n    * @param _lockIntervals An array of lock times (in months)\n    * @param _tokenIntervals An array of token amounts given for locking ERC20s for the amount of time defined by _lockIntervals\n    */\n    function initialize(\n        MiniMeToken _token,\n        address _erc20,\n        address _tokensale,\n        address _vault,\n        uint256[] _lockAmounts,\n        uint256[] _lockIntervals,\n        uint256[] _tokenIntervals\n    )\n        external\n\n    {\n        initialized();\n\n        require(MiniMeToken(_token).controller() == address(this), ERROR_TOKEN_CONTROLLER);\n        require(_lockAmounts.length == _lockIntervals.length);\n        require(_lockIntervals.length == _tokenIntervals.length);\n\n        token = _token;\n        token.enableTransfers(false);\n        erc20 = ERC20(_erc20);\n        tokensale = TokenSaleInterface(_tokensale);\n        vault = Vault(_vault);\n        lockAmounts = _lockAmounts;\n        lockIntervals = _lockIntervals;\n        tokenIntervals = _tokenIntervals;\n        uint256 decimals = uint256(token.decimals());\n        claimAmount = CLAIM_TOKENS.mul(10**decimals);\n    }\n\n    /**\n    * @notice Claim Tokens\n    */\n    function claim(uint16 _day) external {\n      require(_authorized(msg.sender, _day), 'User not authorized to claim any tokens');\n      require(!claimedToken[msg.sender], 'User has already claimed tokens');\n      claimedToken[msg.sender] = true;\n      token.generateTokens(msg.sender, claimAmount); // minime.generateTokens() never returns false\n      emit TokenClaimed(msg.sender);\n    }\n\n    /**\n    * @notice Lock Tokens\n    */\n    function lock(uint256 _lockTime) external {\n      uint amount;\n      uint lockVal;\n      uint expiry;\n      uint claimed = 0;\n      if(claimedToken[msg.sender]){ claimed = claimAmount;}\n      require(token.balanceOf(msg.sender) >= claimed, 'Ya burnt');\n      if(token.balanceOf(msg.sender) == claimed){\n        (amount, lockVal, expiry) = _calcLockingValues(_lockTime);\n        lockStart[msg.sender] = now;\n        lockExpiry[msg.sender] = lockStart[msg.sender] + expiry;\n        lockAmount[msg.sender] = lockVal;\n      } else {\n        //In this case we are updating the lock times and the user's voting tokens\n        expiry = _lockTime.mul(MONTH); //Convert from months to seconds\n        //Get amount owed. _updateLock will subtract any voting tokens already minted\n        (amount, lockVal) = _updateLock(msg.sender, expiry);\n      }\n      require(amount > 0);\n      require(erc20.transferFrom(msg.sender, address(this), lockVal), 'Transfer from msg sender failed');\n      require(token.generateTokens(msg.sender, amount));\n      emit TokensLocked(msg.sender, lockAmount[msg.sender]);\n    }\n\n    /**\n    * @notice Unlock Tokens\n    */\n    function unlock() external {\n      require(lockExpiry[msg.sender] < now, 'Tokens are still locked');\n      delete lockExpiry[msg.sender];\n      delete lockStart[msg.sender];\n      uint claimed = 0;\n      if(claimedToken[msg.sender]){ claimed = claimAmount;}\n      require(token.destroyTokens(msg.sender, token.balanceOf(msg.sender).sub(claimed)), 'Tokens not destroyed');\n      require(erc20.transfer(msg.sender, lockAmount[msg.sender]), 'ERC20 not returned');\n      delete lockAmount[msg.sender];\n      emit TokensLocked(msg.sender, 0);\n    }\n\n    /**\n    * @notice Burn Tokens of `_user` for '`_message`'\n    */\n    function burn(address _user, string _message) external authP(BURN_ROLE, arr(_user)){\n      uint balance = token.balanceOf(_user);\n      require(balance > 0, 'User has no tokens to burn');\n      if(lockAmount[_user] > 0){\n        //If user has locked ERC20, send lockAmount to the vault\n        uint amount = lockAmount[_user];\n        delete lockAmount[_user];\n        require(erc20.approve(address(vault), amount));\n        vault.deposit(address(erc20), amount);\n      }\n      require(token.destroyTokens(_user, balance));\n      emit TokensBurned(_user, balance, _message);\n    }\n\n    function getLockAmounts() external view returns (uint256[]){\n      return lockAmounts;\n    }\n\n    function getLockIntervals() external view returns (uint256[]){\n      return lockIntervals;\n    }\n\n    function getTokenIntervals() external view returns (uint256[]){\n      return tokenIntervals;\n    }\n\n    /**\n    *\n    *\n    */\n    function _updateLock(address _user, uint256 _seconds)\n    private\n    returns (uint256, uint256){\n      require(lockStart[_user] > 0, 'User has not started locking, nothing to update');\n      (uint amount, uint lockVal, uint lockInterval) = _calcLockingValues(_seconds.div(MONTH));\n      lockExpiry[_user] = lockStart[_user] + lockInterval;\n      uint lockDiff = lockVal.sub(lockAmount[_user]);\n      lockAmount[_user] = lockVal;\n      uint claimed = 0;\n      if(claimedToken[_user]){ claimed = claimAmount;}\n      return (amount.sub(token.balanceOf(_user).sub(claimed)), lockDiff);\n    }\n\n    /**\n    *\n    *\n    */\n    function _calcLockingValues(uint256 _months)\n    private\n    returns (uint256, uint256, uint256){\n      //Reverse loop\n      for(uint i=lockIntervals.length-1; i>=0; i--){\n        if(_months >= lockIntervals[i]){\n          return(tokenIntervals[i], lockAmounts[i], lockIntervals[i].mul(MONTH));\n        }\n      }\n    }\n\n    /**\n    *\n    *\n    */\n    function _authorized(address _user, uint16 _day)\n    private\n    returns (bool) {\n      uint contribution = tokensale.getWeiContributed(_day, _user);\n      return(contribution > 0);\n    }\n\n    /**\n    * @notice Execute desired action as a token holder\n    * @dev IForwarder interface conformance. Forwards any token holder action.\n    * @param _evmScript Script being executed\n    */\n    function forward(bytes _evmScript) public {\n        require(canForward(msg.sender, _evmScript), ERROR_CAN_NOT_FORWARD);\n        bytes memory input = new bytes(0); // TODO: Consider input for this\n\n        // Add the managed token to the blacklist to disallow a token holder from executing actions\n        // on the token controller's (this contract) behalf\n        address[] memory blacklist = new address[](1);\n        blacklist[0] = address(token);\n\n        runScript(_evmScript, input, blacklist);\n    }\n\n    function isForwarder() public pure returns (bool) {\n        return true;\n    }\n\n    function canForward(address _sender, bytes) public view returns (bool) {\n        return hasInitialized() && token.balanceOf(_sender) > 0;\n    }\n\n    /*\n    * @dev Notifies the controller about a token transfer allowing the controller to decide whether to allow it or react if desired (only callable from the token)\n    * @param _from The origin of the transfer\n    * @param _to The destination of the transfer\n    * @param _amount The amount of the transfer\n    * @return False if the controller does not authorize the transfer\n    */\n    function onTransfer(address _from, address _to, uint _amount) public isInitialized returns (bool) {\n        return false;\n    }\n\n    /**\n    * @notice Called when ether is sent to the MiniMe Token contract\n    * @return True if the ether is accepted, false for it to throw\n    */\n    function proxyPayment(address) public payable returns (bool) {\n        // Sender check is required to avoid anyone sending ETH to the Token Manager through this method\n        // Even though it is tested, solidity-coverage doesnt get it because\n        // MiniMeToken is not instrumented and entire tx is reverted\n        require(msg.sender == address(token), ERROR_PROXY_PAYMENT_WRONG_SENDER);\n        return false;\n    }\n\n    /**\n    * @dev Notifies the controller about an approval allowing the controller to react if desired\n    * @return False if the controller does not authorize the approval\n    */\n    function onApprove(address, address, uint) public returns (bool) {\n        return true;\n    }\n\n    /**\n    * @dev Disable recovery escape hatch for own token,\n    *      as the it has the concept of issuing tokens without assigning them\n    */\n    function allowRecoverability(address _token) public view returns (bool) {\n        return _token != address(token);\n    }\n\n    event TokenClaimed(address user);\n    event TokensLocked(address user, uint256 amount);\n    event TokensBurned(address user, uint256 amount, string message);\n}\n",
  "sourcePath": "/home/peter/Documents/Work/MyBit/MyBit-Tokens.dao/contracts/MyBitTokenLocker.sol",
  "compiler": {
    "name": "solc",
    "version": "0.4.24+commit.e67f0147.Emscripten.clang"
  },
  "schemaVersion": "2.0.1",
  "updatedAt": "2019-02-20T22:25:58.631Z"
}