{
  "contractName": "MyBitTokenLocker",
  "abi": [
    {
      "constant": true,
      "inputs": [],
      "name": "hasInitialized",
      "outputs": [
        {
          "name": "",
          "type": "bool"
        }
      ],
      "payable": false,
      "stateMutability": "view",
      "type": "function"
    },
    {
      "constant": true,
      "inputs": [
        {
          "name": "_script",
          "type": "bytes"
        }
      ],
      "name": "getEVMScriptExecutor",
      "outputs": [
        {
          "name": "",
          "type": "address"
        }
      ],
      "payable": false,
      "stateMutability": "view",
      "type": "function"
    },
    {
      "constant": true,
      "inputs": [],
      "name": "getRecoveryVault",
      "outputs": [
        {
          "name": "",
          "type": "address"
        }
      ],
      "payable": false,
      "stateMutability": "view",
      "type": "function"
    },
    {
      "constant": true,
      "inputs": [],
      "name": "tokensale",
      "outputs": [
        {
          "name": "",
          "type": "address"
        }
      ],
      "payable": false,
      "stateMutability": "view",
      "type": "function"
    },
    {
      "constant": true,
      "inputs": [],
      "name": "erc20",
      "outputs": [
        {
          "name": "",
          "type": "address"
        }
      ],
      "payable": false,
      "stateMutability": "view",
      "type": "function"
    },
    {
      "constant": true,
      "inputs": [],
      "name": "appId",
      "outputs": [
        {
          "name": "",
          "type": "bytes32"
        }
      ],
      "payable": false,
      "stateMutability": "view",
      "type": "function"
    },
    {
      "constant": true,
      "inputs": [],
      "name": "claimAmount",
      "outputs": [
        {
          "name": "",
          "type": "uint256"
        }
      ],
      "payable": false,
      "stateMutability": "view",
      "type": "function"
    },
    {
      "constant": true,
      "inputs": [],
      "name": "getInitializationBlock",
      "outputs": [
        {
          "name": "",
          "type": "uint256"
        }
      ],
      "payable": false,
      "stateMutability": "view",
      "type": "function"
    },
    {
      "constant": true,
      "inputs": [],
      "name": "whitelist",
      "outputs": [
        {
          "name": "",
          "type": "address"
        }
      ],
      "payable": false,
      "stateMutability": "view",
      "type": "function"
    },
    {
      "constant": false,
      "inputs": [
        {
          "name": "_token",
          "type": "address"
        }
      ],
      "name": "transferToVault",
      "outputs": [],
      "payable": false,
      "stateMutability": "nonpayable",
      "type": "function"
    },
    {
      "constant": true,
      "inputs": [
        {
          "name": "_sender",
          "type": "address"
        },
        {
          "name": "_role",
          "type": "bytes32"
        },
        {
          "name": "_params",
          "type": "uint256[]"
        }
      ],
      "name": "canPerform",
      "outputs": [
        {
          "name": "",
          "type": "bool"
        }
      ],
      "payable": false,
      "stateMutability": "view",
      "type": "function"
    },
    {
      "constant": true,
      "inputs": [],
      "name": "getEVMScriptRegistry",
      "outputs": [
        {
          "name": "",
          "type": "address"
        }
      ],
      "payable": false,
      "stateMutability": "view",
      "type": "function"
    },
    {
      "constant": true,
      "inputs": [],
      "name": "BURN_ROLE",
      "outputs": [
        {
          "name": "",
          "type": "bytes32"
        }
      ],
      "payable": false,
      "stateMutability": "view",
      "type": "function"
    },
    {
      "constant": true,
      "inputs": [],
      "name": "recoveryStatus",
      "outputs": [
        {
          "name": "",
          "type": "bool"
        }
      ],
      "payable": false,
      "stateMutability": "view",
      "type": "function"
    },
    {
      "constant": true,
      "inputs": [],
      "name": "kernel",
      "outputs": [
        {
          "name": "",
          "type": "address"
        }
      ],
      "payable": false,
      "stateMutability": "view",
      "type": "function"
    },
    {
      "constant": true,
      "inputs": [],
      "name": "isPetrified",
      "outputs": [
        {
          "name": "",
          "type": "bool"
        }
      ],
      "payable": false,
      "stateMutability": "view",
      "type": "function"
    },
    {
      "constant": true,
      "inputs": [],
      "name": "MANAGER_ROLE",
      "outputs": [
        {
          "name": "",
          "type": "bytes32"
        }
      ],
      "payable": false,
      "stateMutability": "view",
      "type": "function"
    },
    {
      "constant": true,
      "inputs": [],
      "name": "token",
      "outputs": [
        {
          "name": "",
          "type": "address"
        }
      ],
      "payable": false,
      "stateMutability": "view",
      "type": "function"
    },
    {
      "anonymous": false,
      "inputs": [
        {
          "indexed": false,
          "name": "user",
          "type": "address"
        }
      ],
      "name": "TokenClaimed",
      "type": "event"
    },
    {
      "anonymous": false,
      "inputs": [
        {
          "indexed": false,
          "name": "user",
          "type": "address"
        },
        {
          "indexed": false,
          "name": "amount",
          "type": "uint256"
        }
      ],
      "name": "TokensLocked",
      "type": "event"
    },
    {
      "anonymous": false,
      "inputs": [
        {
          "indexed": false,
          "name": "user",
          "type": "address"
        },
        {
          "indexed": false,
          "name": "amount",
          "type": "uint256"
        },
        {
          "indexed": false,
          "name": "message",
          "type": "string"
        }
      ],
      "name": "TokensBurned",
      "type": "event"
    },
    {
      "anonymous": false,
      "inputs": [
        {
          "indexed": true,
          "name": "executor",
          "type": "address"
        },
        {
          "indexed": false,
          "name": "script",
          "type": "bytes"
        },
        {
          "indexed": false,
          "name": "input",
          "type": "bytes"
        },
        {
          "indexed": false,
          "name": "returnData",
          "type": "bytes"
        }
      ],
      "name": "ScriptResult",
      "type": "event"
    },
    {
      "constant": false,
      "inputs": [
        {
          "name": "_token",
          "type": "address"
        },
        {
          "name": "_erc20",
          "type": "address"
        },
        {
          "name": "_tokensale",
          "type": "address"
        },
        {
          "name": "_whitelist",
          "type": "address"
        },
        {
          "name": "_lockAmounts",
          "type": "uint256[]"
        },
        {
          "name": "_lockIntervals",
          "type": "uint256[]"
        },
        {
          "name": "_tokenIntervals",
          "type": "uint256[]"
        }
      ],
      "name": "initialize",
      "outputs": [],
      "payable": false,
      "stateMutability": "nonpayable",
      "type": "function"
    },
    {
      "constant": false,
      "inputs": [],
      "name": "setClaimAmount",
      "outputs": [],
      "payable": false,
      "stateMutability": "nonpayable",
      "type": "function"
    },
    {
      "constant": false,
      "inputs": [
        {
          "name": "_day",
          "type": "uint16"
        }
      ],
      "name": "claim",
      "outputs": [],
      "payable": false,
      "stateMutability": "nonpayable",
      "type": "function"
    },
    {
      "constant": false,
      "inputs": [
        {
          "name": "_lockTime",
          "type": "uint256"
        }
      ],
      "name": "lock",
      "outputs": [],
      "payable": false,
      "stateMutability": "nonpayable",
      "type": "function"
    },
    {
      "constant": false,
      "inputs": [],
      "name": "unlock",
      "outputs": [],
      "payable": false,
      "stateMutability": "nonpayable",
      "type": "function"
    },
    {
      "constant": false,
      "inputs": [
        {
          "name": "_user",
          "type": "address"
        },
        {
          "name": "_message",
          "type": "string"
        }
      ],
      "name": "burn",
      "outputs": [],
      "payable": false,
      "stateMutability": "nonpayable",
      "type": "function"
    },
    {
      "constant": true,
      "inputs": [],
      "name": "getLockAmounts",
      "outputs": [
        {
          "name": "",
          "type": "uint256[]"
        }
      ],
      "payable": false,
      "stateMutability": "view",
      "type": "function"
    },
    {
      "constant": true,
      "inputs": [],
      "name": "getLockIntervals",
      "outputs": [
        {
          "name": "",
          "type": "uint256[]"
        }
      ],
      "payable": false,
      "stateMutability": "view",
      "type": "function"
    },
    {
      "constant": true,
      "inputs": [],
      "name": "getTokenIntervals",
      "outputs": [
        {
          "name": "",
          "type": "uint256[]"
        }
      ],
      "payable": false,
      "stateMutability": "view",
      "type": "function"
    },
    {
      "constant": false,
      "inputs": [
        {
          "name": "_lockAmounts",
          "type": "uint256[]"
        },
        {
          "name": "_lockIntervals",
          "type": "uint256[]"
        },
        {
          "name": "_tokenIntervals",
          "type": "uint256[]"
        }
      ],
      "name": "changeLocks",
      "outputs": [],
      "payable": false,
      "stateMutability": "nonpayable",
      "type": "function"
    },
    {
      "constant": false,
      "inputs": [
        {
          "name": "_newController",
          "type": "address"
        }
      ],
      "name": "changeTokenController",
      "outputs": [],
      "payable": false,
      "stateMutability": "nonpayable",
      "type": "function"
    },
    {
      "constant": false,
      "inputs": [
        {
          "name": "_newWhitelist",
          "type": "address"
        }
      ],
      "name": "changeWhitelist",
      "outputs": [],
      "payable": false,
      "stateMutability": "nonpayable",
      "type": "function"
    },
    {
      "constant": false,
      "inputs": [
        {
          "name": "_evmScript",
          "type": "bytes"
        }
      ],
      "name": "forward",
      "outputs": [],
      "payable": false,
      "stateMutability": "nonpayable",
      "type": "function"
    },
    {
      "constant": true,
      "inputs": [],
      "name": "isForwarder",
      "outputs": [
        {
          "name": "",
          "type": "bool"
        }
      ],
      "payable": false,
      "stateMutability": "pure",
      "type": "function"
    },
    {
      "constant": true,
      "inputs": [
        {
          "name": "_sender",
          "type": "address"
        },
        {
          "name": "",
          "type": "bytes"
        }
      ],
      "name": "canForward",
      "outputs": [
        {
          "name": "",
          "type": "bool"
        }
      ],
      "payable": false,
      "stateMutability": "view",
      "type": "function"
    },
    {
      "constant": false,
      "inputs": [
        {
          "name": "_from",
          "type": "address"
        },
        {
          "name": "_to",
          "type": "address"
        },
        {
          "name": "_amount",
          "type": "uint256"
        }
      ],
      "name": "onTransfer",
      "outputs": [
        {
          "name": "",
          "type": "bool"
        }
      ],
      "payable": false,
      "stateMutability": "nonpayable",
      "type": "function"
    },
    {
      "constant": false,
      "inputs": [
        {
          "name": "",
          "type": "address"
        }
      ],
      "name": "proxyPayment",
      "outputs": [
        {
          "name": "",
          "type": "bool"
        }
      ],
      "payable": true,
      "stateMutability": "payable",
      "type": "function"
    },
    {
      "constant": false,
      "inputs": [
        {
          "name": "",
          "type": "address"
        },
        {
          "name": "",
          "type": "address"
        },
        {
          "name": "",
          "type": "uint256"
        }
      ],
      "name": "onApprove",
      "outputs": [
        {
          "name": "",
          "type": "bool"
        }
      ],
      "payable": false,
      "stateMutability": "nonpayable",
      "type": "function"
    },
    {
      "constant": false,
      "inputs": [
        {
          "name": "_status",
          "type": "bool"
        }
      ],
      "name": "setRecoveryStatus",
      "outputs": [],
      "payable": false,
      "stateMutability": "nonpayable",
      "type": "function"
    },
    {
      "constant": true,
      "inputs": [
        {
          "name": "_token",
          "type": "address"
        }
      ],
      "name": "allowRecoverability",
      "outputs": [
        {
          "name": "",
          "type": "bool"
        }
      ],
      "payable": false,
      "stateMutability": "view",
      "type": "function"
    }
  ],
  "bytecode": "0x60806040526200001d62000023640100000000026401000000009004565b62000309565b60006200003e6200015e640100000000026401000000009004565b146040805190810160405280601881526020017f494e49545f414c52454144595f494e495449414c495a4544000000000000000081525090151562000121576040517f08c379a00000000000000000000000000000000000000000000000000000000081526004018080602001828103825283818151815260200191508051906020019080838360005b83811015620000e5578082015181840152602081019050620000c8565b50505050905090810190601f168015620001135780820380516001836020036101000a031916815260200191505b509250505060405180910390fd5b506200015c7fffffffffffffffffffffffffffffffffffffffffffffffffffffffffffffffff620001ab640100000000026401000000009004565b565b6000620001a67febb05b386a8d34882b8711d156f463690983dc47815980fb82aeeff1aa43579e60010260001916620002f7640100000000026200499d176401000000009004565b905090565b6000620001c66200015e640100000000026401000000009004565b146040805190810160405280601881526020017f494e49545f414c52454144595f494e495449414c495a45440000000000000000815250901515620002a9576040517f08c379a00000000000000000000000000000000000000000000000000000000081526004018080602001828103825283818151815260200191508051906020019080838360005b838110156200026d57808201518184015260208101905062000250565b50505050905090810190601f1680156200029b5780820380516001836020036101000a031916815260200191505b509250505060405180910390fd5b50620002f4817febb05b386a8d34882b8711d156f463690983dc47815980fb82aeeff1aa43579e60010260001916620003026401000000000262005984179091906401000000009004565b50565b600081549050919050565b8082555050565b615baf80620003196000396000f3006080604052600436106101d8576000357c0100000000000000000000000000000000000000000000000000000000900463ffffffff1680630803fac0146101dd57806308d0a7cf1461020c5780631d7f53111461024f578063243de53b146102bb5780632914b9bd146102d257806332f0a3b51461037b5780633575ca80146103d25780633c31996b1461043e578063452e2f61146105295780634a393149146105945780635d9ef52e14610619578063704248ec14610674578063785e9e86146106cb5780637e7db6e11461072257806380afdea81461077d578063830953ab146107b0578063840c0350146107db5780638b3dd7491461080a57806393e59dc1146108355780639d4941d81461088c578063a1658fad146108cf578063a479e5081461097b578063a69df4b5146109d2578063b930908f146109e9578063c0774df314610a1c578063cdcb04c814610abd578063d4aae0c414610aec578063d6c8976b14610b43578063d948d46814610b86578063da682aeb14610bef578063dd46706414610c74578063de4796ed14610ca1578063ec87621c14610cd0578063edac5f3e14610d03578063f48c305414610d34578063fc0c546a14610d82578063fc1cd0f914610dd9578063fd64eccb14610e45575b600080fd5b3480156101e957600080fd5b506101f2610e74565b604051808215151515815260200191505060405180910390f35b34801561021857600080fd5b5061024d600480360381019080803573ffffffffffffffffffffffffffffffffffffffff169060200190929190505050610e9f565b005b34801561025b57600080fd5b50610264611034565b6040518080602001828103825283818151815260200191508051906020019060200280838360005b838110156102a757808201518184015260208101905061028c565b505050509050019250505060405180910390f35b3480156102c757600080fd5b506102d061108c565b005b3480156102de57600080fd5b50610339600480360381019080803590602001908201803590602001908080601f0160208091040260200160405190810160405280939291908181526020018383808284378201915050505050509192919290505050611173565b604051808273ffffffffffffffffffffffffffffffffffffffff1673ffffffffffffffffffffffffffffffffffffffff16815260200191505060405180910390f35b34801561038757600080fd5b50610390611292565b604051808273ffffffffffffffffffffffffffffffffffffffff1673ffffffffffffffffffffffffffffffffffffffff16815260200191505060405180910390f35b3480156103de57600080fd5b506103e761133f565b6040518080602001828103825283818151815260200191508051906020019060200280838360005b8381101561042a57808201518184015260208101905061040f565b505050509050019250505060405180910390f35b34801561044a57600080fd5b50610527600480360381019080803573ffffffffffffffffffffffffffffffffffffffff169060200190929190803573ffffffffffffffffffffffffffffffffffffffff169060200190929190803573ffffffffffffffffffffffffffffffffffffffff169060200190929190803573ffffffffffffffffffffffffffffffffffffffff169060200190929190803590602001908201803590602001919091929391929390803590602001908201803590602001919091929391929390803590602001908201803590602001919091929391929390505050611397565b005b34801561053557600080fd5b5061059260048036038101908080359060200190820180359060200191909192939192939080359060200190820180359060200191909192939192939080359060200190820180359060200191909192939192939050505061176d565b005b3480156105a057600080fd5b506105ff600480360381019080803573ffffffffffffffffffffffffffffffffffffffff169060200190929190803573ffffffffffffffffffffffffffffffffffffffff16906020019092919080359060200190929190505050611924565b604051808215151515815260200191505060405180910390f35b34801561062557600080fd5b50610672600480360381019080803573ffffffffffffffffffffffffffffffffffffffff169060200190929190803590602001908201803590602001919091929391929390505050611a18565b005b34801561068057600080fd5b5061068961214f565b604051808273ffffffffffffffffffffffffffffffffffffffff1673ffffffffffffffffffffffffffffffffffffffff16815260200191505060405180910390f35b3480156106d757600080fd5b506106e0612175565b604051808273ffffffffffffffffffffffffffffffffffffffff1673ffffffffffffffffffffffffffffffffffffffff16815260200191505060405180910390f35b34801561072e57600080fd5b50610763600480360381019080803573ffffffffffffffffffffffffffffffffffffffff16906020019092919050505061219b565b604051808215151515815260200191505060405180910390f35b34801561078957600080fd5b50610792612214565b60405180826000191660001916815260200191505060405180910390f35b3480156107bc57600080fd5b506107c561224b565b6040518082815260200191505060405180910390f35b3480156107e757600080fd5b50610808600480360381019080803515159060200190929190505050612251565b005b34801561081657600080fd5b5061081f6123bf565b6040518082815260200191505060405180910390f35b34801561084157600080fd5b5061084a6123f6565b604051808273ffffffffffffffffffffffffffffffffffffffff1673ffffffffffffffffffffffffffffffffffffffff16815260200191505060405180910390f35b34801561089857600080fd5b506108cd600480360381019080803573ffffffffffffffffffffffffffffffffffffffff16906020019092919050505061241c565b005b3480156108db57600080fd5b50610961600480360381019080803573ffffffffffffffffffffffffffffffffffffffff16906020019092919080356000191690602001909291908035906020019082018035906020019080806020026020016040519081016040528093929190818152602001838360200280828437820191505050505050919291929050505061284e565b604051808215151515815260200191505060405180910390f35b34801561098757600080fd5b50610990612a55565b604051808273ffffffffffffffffffffffffffffffffffffffff1673ffffffffffffffffffffffffffffffffffffffff16815260200191505060405180910390f35b3480156109de57600080fd5b506109e7612b70565b005b3480156109f557600080fd5b506109fe6131ea565b60405180826000191660001916815260200191505060405180910390f35b348015610a2857600080fd5b50610aa3600480360381019080803573ffffffffffffffffffffffffffffffffffffffff169060200190929190803590602001908201803590602001908080601f0160208091040260200160405190810160405280939291908181526020018383808284378201915050505050509192919290505050613223565b604051808215151515815260200191505060405180910390f35b348015610ac957600080fd5b50610ad2613337565b604051808215151515815260200191505060405180910390f35b348015610af857600080fd5b50610b0161334a565b604051808273ffffffffffffffffffffffffffffffffffffffff1673ffffffffffffffffffffffffffffffffffffffff16815260200191505060405180910390f35b348015610b4f57600080fd5b50610b84600480360381019080803573ffffffffffffffffffffffffffffffffffffffff169060200190929190505050613381565b005b348015610b9257600080fd5b50610bed600480360381019080803590602001908201803590602001908080601f01602080910402602001604051908101604052809392919081815260200183838082843782019150505050505091929192905050506135a9565b005b348015610bfb57600080fd5b50610c5a600480360381019080803573ffffffffffffffffffffffffffffffffffffffff169060200190929190803573ffffffffffffffffffffffffffffffffffffffff1690602001909291908035906020019092919050505061377d565b604051808215151515815260200191505060405180910390f35b348015610c8057600080fd5b50610c9f60048036038101908080359060200190929190505050613789565b005b348015610cad57600080fd5b50610cb6614077565b604051808215151515815260200191505060405180910390f35b348015610cdc57600080fd5b50610ce56140a8565b60405180826000191660001916815260200191505060405180910390f35b348015610d0f57600080fd5b50610d32600480360381019080803561ffff1690602001909291905050506140e1565b005b610d68600480360381019080803573ffffffffffffffffffffffffffffffffffffffff169060200190929190505050614563565b604051808215151515815260200191505060405180910390f35b348015610d8e57600080fd5b50610d9761469d565b604051808273ffffffffffffffffffffffffffffffffffffffff1673ffffffffffffffffffffffffffffffffffffffff16815260200191505060405180910390f35b348015610de557600080fd5b50610dee6146c2565b6040518080602001828103825283818151815260200191508051906020019060200280838360005b83811015610e31578082015181840152602081019050610e16565b505050509050019250505060405180910390f35b348015610e5157600080fd5b50610e5a61471a565b604051808215151515815260200191505060405180910390f35b600080610e7f6123bf565b905060008114158015610e99575080610e96614723565b10155b91505090565b60405180807f4d414e414745525f524f4c450000000000000000000000000000000000000000815250600c0190506040518091039020610f1033826000604051908082528060200260200182016040528015610f0a5781602001602082028038833980820191505090505b5061284e565b6040805190810160405280600f81526020017f4150505f415554485f4641494c45440000000000000000000000000000000000815250901515610fee576040517f08c379a00000000000000000000000000000000000000000000000000000000081526004018080602001828103825283818151815260200191508051906020019080838360005b83811015610fb3578082015181840152602081019050610f98565b50505050905090810190601f168015610fe05780820380516001836020036101000a031916815260200191505b509250505060405180910390fd5b5081600360006101000a81548173ffffffffffffffffffffffffffffffffffffffff021916908373ffffffffffffffffffffffffffffffffffffffff1602179055505050565b6060600580548060200260200160405190810160405280929190818152602001828054801561108257602002820191906000526020600020905b81548152602001906001019080831161106e575b5050505050905090565b60008060009054906101000a900473ffffffffffffffffffffffffffffffffffffffff1673ffffffffffffffffffffffffffffffffffffffff1663313ce5676040518163ffffffff167c0100000000000000000000000000000000000000000000000000000000028152600401602060405180830381600087803b15801561111357600080fd5b505af1158015611127573d6000803e3d6000fd5b505050506040513d602081101561113d57600080fd5b810190808051906020019092919050505060ff16905061116a81600a0a600161472b90919063ffffffff16565b60048190555050565b600061117d612a55565b73ffffffffffffffffffffffffffffffffffffffff166304bf2a7f836040518263ffffffff167c01000000000000000000000000000000000000000000000000000000000281526004018080602001828103825283818151815260200191508051906020019080838360005b838110156112045780820151818401526020810190506111e9565b50505050905090810190601f1680156112315780820380516001836020036101000a031916815260200191505b5092505050602060405180830381600087803b15801561125057600080fd5b505af1158015611264573d6000803e3d6000fd5b505050506040513d602081101561127a57600080fd5b81019080805190602001909291905050509050919050565b600061129c61334a565b73ffffffffffffffffffffffffffffffffffffffff166332f0a3b56040518163ffffffff167c0100000000000000000000000000000000000000000000000000000000028152600401602060405180830381600087803b1580156112ff57600080fd5b505af1158015611313573d6000803e3d6000fd5b505050506040513d602081101561132957600080fd5b8101908080519060200190929190505050905090565b6060600680548060200260200160405190810160405280929190818152602001828054801561138d57602002820191906000526020600020905b815481526020019060010190808311611379575b5050505050905090565b61139f61483d565b3073ffffffffffffffffffffffffffffffffffffffff168a73ffffffffffffffffffffffffffffffffffffffff1663f77c47916040518163ffffffff167c0100000000000000000000000000000000000000000000000000000000028152600401602060405180830381600087803b15801561141a57600080fd5b505af115801561142e573d6000803e3d6000fd5b505050506040513d602081101561144457600080fd5b810190808051906020019092919050505073ffffffffffffffffffffffffffffffffffffffff16146040805190810160405280601381526020017f544d5f544f4b454e5f434f4e54524f4c4c45520000000000000000000000000081525090151561154a576040517f08c379a00000000000000000000000000000000000000000000000000000000081526004018080602001828103825283818151815260200191508051906020019080838360005b8381101561150f5780820151818401526020810190506114f4565b50505050905090810190601f16801561153c5780820380516001836020036101000a031916815260200191505b509250505060405180910390fd5b50838390508686905014151561155f57600080fd5b818190508484905014151561157357600080fd5b896000806101000a81548173ffffffffffffffffffffffffffffffffffffffff021916908373ffffffffffffffffffffffffffffffffffffffff1602179055506000809054906101000a900473ffffffffffffffffffffffffffffffffffffffff1673ffffffffffffffffffffffffffffffffffffffff1663f41e60c560006040518263ffffffff167c01000000000000000000000000000000000000000000000000000000000281526004018082151515158152602001915050600060405180830381600087803b15801561164857600080fd5b505af115801561165c573d6000803e3d6000fd5b5050505088600160006101000a81548173ffffffffffffffffffffffffffffffffffffffff021916908373ffffffffffffffffffffffffffffffffffffffff16021790555087600260006101000a81548173ffffffffffffffffffffffffffffffffffffffff021916908373ffffffffffffffffffffffffffffffffffffffff16021790555086600360006101000a81548173ffffffffffffffffffffffffffffffffffffffff021916908373ffffffffffffffffffffffffffffffffffffffff160217905550858560059190611734929190615b11565b50838360069190611746929190615b11565b50818160079190611758929190615b11565b5061176161108c565b50505050505050505050565b60405180807f4d414e414745525f524f4c450000000000000000000000000000000000000000815250600c01905060405180910390206117de338260006040519080825280602002602001820160405280156117d85781602001602082028038833980820191505090505b5061284e565b6040805190810160405280600f81526020017f4150505f415554485f4641494c454400000000000000000000000000000000008152509015156118bc576040517f08c379a00000000000000000000000000000000000000000000000000000000081526004018080602001828103825283818151815260200191508051906020019080838360005b83811015611881578082015181840152602081019050611866565b50505050905090810190601f1680156118ae5780820380516001836020036101000a031916815260200191505b509250505060405180910390fd5b5084849050878790501415156118d157600080fd5b82829050858590501415156118e557600080fd5b8686600591906118f6929190615b11565b50848460069190611908929190615b11565b5082826007919061191a929190615b11565b5050505050505050565b600061192e610e74565b6040805190810160405280601481526020017f494e49545f4e4f545f494e495449414c495a4544000000000000000000000000815250901515611a0c576040517f08c379a00000000000000000000000000000000000000000000000000000000081526004018080602001828103825283818151815260200191508051906020019080838360005b838110156119d15780820151818401526020810190506119b6565b50505050905090810190601f1680156119fe5780820380516001836020036101000a031916815260200191505b509250505060405180910390fd5b50600090509392505050565b600080600060405180807f4255524e5f524f4c45000000000000000000000000000000000000000000000081525060090190506040518091039020611a5c8761496a565b611a6733838361284e565b6040805190810160405280600f81526020017f4150505f415554485f4641494c45440000000000000000000000000000000000815250901515611b45576040517f08c379a00000000000000000000000000000000000000000000000000000000081526004018080602001828103825283818151815260200191508051906020019080838360005b83811015611b0a578082015181840152602081019050611aef565b50505050905090810190601f168015611b375780820380516001836020036101000a031916815260200191505b509250505060405180910390fd5b506000809054906101000a900473ffffffffffffffffffffffffffffffffffffffff1673ffffffffffffffffffffffffffffffffffffffff166370a08231896040518263ffffffff167c0100000000000000000000000000000000000000000000000000000000028152600401808273ffffffffffffffffffffffffffffffffffffffff1673ffffffffffffffffffffffffffffffffffffffff168152602001915050602060405180830381600087803b158015611c0257600080fd5b505af1158015611c16573d6000803e3d6000fd5b505050506040513d6020811015611c2c57600080fd5b81019080805190602001909291905050509450600085111515611cb7576040517f08c379a000000000000000000000000000000000000000000000000000000000815260040180806020018281038252601a8152602001807f5573657220686173206e6f20746f6b656e7320746f206275726e00000000000081525060200191505060405180910390fd5b6000600b60008a73ffffffffffffffffffffffffffffffffffffffff1673ffffffffffffffffffffffffffffffffffffffff168152602001908152602001600020541115611fae57611d07611292565b9350600b60008973ffffffffffffffffffffffffffffffffffffffff1673ffffffffffffffffffffffffffffffffffffffff168152602001908152602001600020549250600b60008973ffffffffffffffffffffffffffffffffffffffff1673ffffffffffffffffffffffffffffffffffffffff16815260200190815260200160002060009055600073ffffffffffffffffffffffffffffffffffffffff168473ffffffffffffffffffffffffffffffffffffffff16141515611fad57600160009054906101000a900473ffffffffffffffffffffffffffffffffffffffff1673ffffffffffffffffffffffffffffffffffffffff1663095ea7b385856040518363ffffffff167c0100000000000000000000000000000000000000000000000000000000028152600401808373ffffffffffffffffffffffffffffffffffffffff1673ffffffffffffffffffffffffffffffffffffffff16815260200182815260200192505050602060405180830381600087803b158015611e8957600080fd5b505af1158015611e9d573d6000803e3d6000fd5b505050506040513d6020811015611eb357600080fd5b81019080805190602001909291905050501515611ecf57600080fd5b8373ffffffffffffffffffffffffffffffffffffffff166347e7ef24600160009054906101000a900473ffffffffffffffffffffffffffffffffffffffff16856040518363ffffffff167c0100000000000000000000000000000000000000000000000000000000028152600401808373ffffffffffffffffffffffffffffffffffffffff1673ffffffffffffffffffffffffffffffffffffffff16815260200182815260200192505050600060405180830381600087803b158015611f9457600080fd5b505af1158015611fa8573d6000803e3d6000fd5b505050505b5b6000809054906101000a900473ffffffffffffffffffffffffffffffffffffffff1673ffffffffffffffffffffffffffffffffffffffff1663d3ce77fe89876040518363ffffffff167c0100000000000000000000000000000000000000000000000000000000028152600401808373ffffffffffffffffffffffffffffffffffffffff1673ffffffffffffffffffffffffffffffffffffffff16815260200182815260200192505050602060405180830381600087803b15801561207257600080fd5b505af1158015612086573d6000803e3d6000fd5b505050506040513d602081101561209c57600080fd5b810190808051906020019092919050505015156120b857600080fd5b7ffad31924d655455395c87544c8aa1ffdb5a7505a22a3c2e03f28003b6556a75f88868989604051808573ffffffffffffffffffffffffffffffffffffffff1673ffffffffffffffffffffffffffffffffffffffff16815260200184815260200180602001828103825284848281815260200192508082843782019150509550505050505060405180910390a15050505050505050565b600260009054906101000a900473ffffffffffffffffffffffffffffffffffffffff1681565b600160009054906101000a900473ffffffffffffffffffffffffffffffffffffffff1681565b6000600160009054906101000a900473ffffffffffffffffffffffffffffffffffffffff1673ffffffffffffffffffffffffffffffffffffffff168273ffffffffffffffffffffffffffffffffffffffff16141561220a57600360149054906101000a900460ff16905061220f565b600190505b919050565b60006122467fd625496217aa6a3453eecb9c3489dc5a53e6c67b444329ea2b2cbc9ff547639b60010260001916614992565b905090565b60045481565b60405180807f4d414e414745525f524f4c450000000000000000000000000000000000000000815250600c01905060405180910390206122c2338260006040519080825280602002602001820160405280156122bc5781602001602082028038833980820191505090505b5061284e565b6040805190810160405280600f81526020017f4150505f415554485f4641494c454400000000000000000000000000000000008152509015156123a0576040517f08c379a00000000000000000000000000000000000000000000000000000000081526004018080602001828103825283818151815260200191508051906020019080838360005b8381101561236557808201518184015260208101905061234a565b50505050905090810190601f1680156123925780820380516001836020036101000a031916815260200191505b509250505060405180910390fd5b5081600360146101000a81548160ff0219169083151502179055505050565b60006123f17febb05b386a8d34882b8711d156f463690983dc47815980fb82aeeff1aa43579e6001026000191661499d565b905090565b600360009054906101000a900473ffffffffffffffffffffffffffffffffffffffff1681565b6000806124288361219b565b6040805190810160405280601281526020017f5245434f5645525f444953414c4c4f5745440000000000000000000000000000815250901515612506576040517f08c379a00000000000000000000000000000000000000000000000000000000081526004018080602001828103825283818151815260200191508051906020019080838360005b838110156124cb5780820151818401526020810190506124b0565b50505050905090810190601f1680156124f85780820380516001836020036101000a031916815260200191505b509250505060405180910390fd5b5061250f611292565b915061251a826149a8565b6040805190810160405280601a81526020017f5245434f5645525f5641554c545f4e4f545f434f4e54524143540000000000008152509015156125f8576040517f08c379a00000000000000000000000000000000000000000000000000000000081526004018080602001828103825283818151815260200191508051906020019080838360005b838110156125bd5780820151818401526020810190506125a2565b50505050905090810190601f1680156125ea5780820380516001836020036101000a031916815260200191505b509250505060405180910390fd5b50600073ffffffffffffffffffffffffffffffffffffffff168373ffffffffffffffffffffffffffffffffffffffff161415612691578173ffffffffffffffffffffffffffffffffffffffff166108fc3073ffffffffffffffffffffffffffffffffffffffff16319081150290604051600060405180830381858888f1935050505015801561268b573d6000803e3d6000fd5b50612849565b8273ffffffffffffffffffffffffffffffffffffffff166370a08231306040518263ffffffff167c0100000000000000000000000000000000000000000000000000000000028152600401808273ffffffffffffffffffffffffffffffffffffffff1673ffffffffffffffffffffffffffffffffffffffff168152602001915050602060405180830381600087803b15801561272c57600080fd5b505af1158015612740573d6000803e3d6000fd5b505050506040513d602081101561275657600080fd5b810190808051906020019092919050505090508273ffffffffffffffffffffffffffffffffffffffff1663a9059cbb83836040518363ffffffff167c0100000000000000000000000000000000000000000000000000000000028152600401808373ffffffffffffffffffffffffffffffffffffffff1673ffffffffffffffffffffffffffffffffffffffff16815260200182815260200192505050602060405180830381600087803b15801561280c57600080fd5b505af1158015612820573d6000803e3d6000fd5b505050506040513d602081101561283657600080fd5b8101908080519060200190929190505050505b505050565b6000806060600061285d610e74565b151561286c5760009350612a4b565b61287461334a565b9250600073ffffffffffffffffffffffffffffffffffffffff168373ffffffffffffffffffffffffffffffffffffffff1614156128b45760009350612a4b565b602085510290508491508082528273ffffffffffffffffffffffffffffffffffffffff1663fdef9106883089866040518563ffffffff167c0100000000000000000000000000000000000000000000000000000000028152600401808573ffffffffffffffffffffffffffffffffffffffff1673ffffffffffffffffffffffffffffffffffffffff1681526020018473ffffffffffffffffffffffffffffffffffffffff1673ffffffffffffffffffffffffffffffffffffffff168152602001836000191660001916815260200180602001828103825283818151815260200191508051906020019080838360005b838110156129be5780820151818401526020810190506129a3565b50505050905090810190601f1680156129eb5780820380516001836020036101000a031916815260200191505b5095505050505050602060405180830381600087803b158015612a0d57600080fd5b505af1158015612a21573d6000803e3d6000fd5b505050506040513d6020811015612a3757600080fd5b810190808051906020019092919050505093505b5050509392505050565b600080612a6061334a565b73ffffffffffffffffffffffffffffffffffffffff1663be00bbd87fd6f028ca0e8edb4a8c9757ca4fdccab25fa1e0317da1188108f7d2dee14902fb6001027fddbcfd564f642ab5627cf68b9b7d374fb4f8a36e941a75d89c87998cef03bd616001026040518363ffffffff167c0100000000000000000000000000000000000000000000000000000000028152600401808360001916600019168152602001826000191660001916815260200192505050602060405180830381600087803b158015612b2c57600080fd5b505af1158015612b40573d6000803e3d6000fd5b505050506040513d6020811015612b5657600080fd5b810190808051906020019092919050505090508091505090565b600042600a60003373ffffffffffffffffffffffffffffffffffffffff1673ffffffffffffffffffffffffffffffffffffffff16815260200190815260200160002054101515612c28576040517f08c379a00000000000000000000000000000000000000000000000000000000081526004018080602001828103825260178152602001807f546f6b656e7320617265207374696c6c206c6f636b656400000000000000000081525060200191505060405180910390fd5b600a60003373ffffffffffffffffffffffffffffffffffffffff1673ffffffffffffffffffffffffffffffffffffffff16815260200190815260200160002060009055600960003373ffffffffffffffffffffffffffffffffffffffff1673ffffffffffffffffffffffffffffffffffffffff1681526020019081526020016000206000905560009050600860003373ffffffffffffffffffffffffffffffffffffffff1673ffffffffffffffffffffffffffffffffffffffff16815260200190815260200160002060009054906101000a900460ff1615612d0a5760045490505b6000809054906101000a900473ffffffffffffffffffffffffffffffffffffffff1673ffffffffffffffffffffffffffffffffffffffff1663d3ce77fe33612e51846000809054906101000a900473ffffffffffffffffffffffffffffffffffffffff1673ffffffffffffffffffffffffffffffffffffffff166370a08231336040518263ffffffff167c0100000000000000000000000000000000000000000000000000000000028152600401808273ffffffffffffffffffffffffffffffffffffffff1673ffffffffffffffffffffffffffffffffffffffff168152602001915050602060405180830381600087803b158015612e0857600080fd5b505af1158015612e1c573d6000803e3d6000fd5b505050506040513d6020811015612e3257600080fd5b81019080805190602001909291905050506149fa90919063ffffffff16565b6040518363ffffffff167c0100000000000000000000000000000000000000000000000000000000028152600401808373ffffffffffffffffffffffffffffffffffffffff1673ffffffffffffffffffffffffffffffffffffffff16815260200182815260200192505050602060405180830381600087803b158015612ed657600080fd5b505af1158015612eea573d6000803e3d6000fd5b505050506040513d6020811015612f0057600080fd5b81019080805190602001909291905050501515612f85576040517f08c379a00000000000000000000000000000000000000000000000000000000081526004018080602001828103825260148152602001807f546f6b656e73206e6f742064657374726f79656400000000000000000000000081525060200191505060405180910390fd5b600160009054906101000a900473ffffffffffffffffffffffffffffffffffffffff1673ffffffffffffffffffffffffffffffffffffffff1663a9059cbb33600b60003373ffffffffffffffffffffffffffffffffffffffff1673ffffffffffffffffffffffffffffffffffffffff168152602001908152602001600020546040518363ffffffff167c0100000000000000000000000000000000000000000000000000000000028152600401808373ffffffffffffffffffffffffffffffffffffffff1673ffffffffffffffffffffffffffffffffffffffff16815260200182815260200192505050602060405180830381600087803b15801561308957600080fd5b505af115801561309d573d6000803e3d6000fd5b505050506040513d60208110156130b357600080fd5b81019080805190602001909291905050501515613138576040517f08c379a00000000000000000000000000000000000000000000000000000000081526004018080602001828103825260128152602001807f4552433230206e6f742072657475726e6564000000000000000000000000000081525060200191505060405180910390fd5b600b60003373ffffffffffffffffffffffffffffffffffffffff1673ffffffffffffffffffffffffffffffffffffffff168152602001908152602001600020600090557fac87f20a77d28ee8bbb58ec87ea8fa968b3393efae1a368fd50b767c2847391c336000604051808373ffffffffffffffffffffffffffffffffffffffff1673ffffffffffffffffffffffffffffffffffffffff1681526020018281526020019250505060405180910390a150565b60405180807f4255524e5f524f4c4500000000000000000000000000000000000000000000008152506009019050604051809103902081565b600061322d610e74565b801561332f575060008060009054906101000a900473ffffffffffffffffffffffffffffffffffffffff1673ffffffffffffffffffffffffffffffffffffffff166370a08231856040518263ffffffff167c0100000000000000000000000000000000000000000000000000000000028152600401808273ffffffffffffffffffffffffffffffffffffffff1673ffffffffffffffffffffffffffffffffffffffff168152602001915050602060405180830381600087803b1580156132f257600080fd5b505af1158015613306573d6000803e3d6000fd5b505050506040513d602081101561331c57600080fd5b8101908080519060200190929190505050115b905092915050565b600360149054906101000a900460ff1681565b600061337c7f4172f0f7d2289153072b0a6ca36959e0cbe2efc3afe50fc81636caa96338137b60010260001916614aef565b905090565b60405180807f4d414e414745525f524f4c450000000000000000000000000000000000000000815250600c01905060405180910390206133f2338260006040519080825280602002602001820160405280156133ec5781602001602082028038833980820191505090505b5061284e565b6040805190810160405280600f81526020017f4150505f415554485f4641494c454400000000000000000000000000000000008152509015156134d0576040517f08c379a00000000000000000000000000000000000000000000000000000000081526004018080602001828103825283818151815260200191508051906020019080838360005b8381101561349557808201518184015260208101905061347a565b50505050905090810190601f1680156134c25780820380516001836020036101000a031916815260200191505b509250505060405180910390fd5b506000809054906101000a900473ffffffffffffffffffffffffffffffffffffffff1673ffffffffffffffffffffffffffffffffffffffff16633cebb823836040518263ffffffff167c0100000000000000000000000000000000000000000000000000000000028152600401808273ffffffffffffffffffffffffffffffffffffffff1673ffffffffffffffffffffffffffffffffffffffff168152602001915050600060405180830381600087803b15801561358d57600080fd5b505af11580156135a1573d6000803e3d6000fd5b505050505050565b6060806135b63384613223565b6040805190810160405280601281526020017f544d5f43414e5f4e4f545f464f52574152440000000000000000000000000000815250901515613694576040517f08c379a00000000000000000000000000000000000000000000000000000000081526004018080602001828103825283818151815260200191508051906020019080838360005b8381101561365957808201518184015260208101905061363e565b50505050905090810190601f1680156136865780820380516001836020036101000a031916815260200191505b509250505060405180910390fd5b5060006040519080825280601f01601f1916602001820160405280156136c95781602001602082028038833980820191505090505b50915060016040519080825280602002602001820160405280156136fc5781602001602082028038833980820191505090505b5090506000809054906101000a900473ffffffffffffffffffffffffffffffffffffffff1681600081518110151561373057fe5b9060200190602002019073ffffffffffffffffffffffffffffffffffffffff16908173ffffffffffffffffffffffffffffffffffffffff1681525050613777838383614afa565b50505050565b60008090509392505050565b600080600080600073ffffffffffffffffffffffffffffffffffffffff16600360009054906101000a900473ffffffffffffffffffffffffffffffffffffffff1673ffffffffffffffffffffffffffffffffffffffff161415156138eb57600360009054906101000a900473ffffffffffffffffffffffffffffffffffffffff1673ffffffffffffffffffffffffffffffffffffffff16631950c218336040518263ffffffff167c0100000000000000000000000000000000000000000000000000000000028152600401808273ffffffffffffffffffffffffffffffffffffffff1673ffffffffffffffffffffffffffffffffffffffff168152602001915050602060405180830381600087803b1580156138a457600080fd5b505af11580156138b8573d6000803e3d6000fd5b505050506040513d60208110156138ce57600080fd5b810190808051906020019092919050505015156138ea57600080fd5b5b60009050600860003373ffffffffffffffffffffffffffffffffffffffff1673ffffffffffffffffffffffffffffffffffffffff16815260200190815260200160002060009054906101000a900460ff16156139475760045490505b806000809054906101000a900473ffffffffffffffffffffffffffffffffffffffff1673ffffffffffffffffffffffffffffffffffffffff166370a08231336040518263ffffffff167c0100000000000000000000000000000000000000000000000000000000028152600401808273ffffffffffffffffffffffffffffffffffffffff1673ffffffffffffffffffffffffffffffffffffffff168152602001915050602060405180830381600087803b158015613a0457600080fd5b505af1158015613a18573d6000803e3d6000fd5b505050506040513d6020811015613a2e57600080fd5b810190808051906020019092919050505010151515613ab5576040517f08c379a00000000000000000000000000000000000000000000000000000000081526004018080602001828103825260088152602001807f5961206275726e7400000000000000000000000000000000000000000000000081525060200191505060405180910390fd5b806000809054906101000a900473ffffffffffffffffffffffffffffffffffffffff1673ffffffffffffffffffffffffffffffffffffffff166370a08231336040518263ffffffff167c0100000000000000000000000000000000000000000000000000000000028152600401808273ffffffffffffffffffffffffffffffffffffffff1673ffffffffffffffffffffffffffffffffffffffff168152602001915050602060405180830381600087803b158015613b7257600080fd5b505af1158015613b86573d6000803e3d6000fd5b505050506040513d6020811015613b9c57600080fd5b81019080805190602001909291905050501415613cda57613bbc856153f7565b80945081955082965050505042600960003373ffffffffffffffffffffffffffffffffffffffff1673ffffffffffffffffffffffffffffffffffffffff1681526020019081526020016000208190555081600960003373ffffffffffffffffffffffffffffffffffffffff1673ffffffffffffffffffffffffffffffffffffffff1681526020019081526020016000205401600a60003373ffffffffffffffffffffffffffffffffffffffff1673ffffffffffffffffffffffffffffffffffffffff1681526020019081526020016000208190555082600b60003373ffffffffffffffffffffffffffffffffffffffff1673ffffffffffffffffffffffffffffffffffffffff16815260200190815260200160002081905550613d05565b613cf062278d008661472b90919063ffffffff16565b9150613cfc33836154ba565b80945081955050505b600084111515613d1457600080fd5b600160009054906101000a900473ffffffffffffffffffffffffffffffffffffffff1673ffffffffffffffffffffffffffffffffffffffff166323b872dd3330866040518463ffffffff167c0100000000000000000000000000000000000000000000000000000000028152600401808473ffffffffffffffffffffffffffffffffffffffff1673ffffffffffffffffffffffffffffffffffffffff1681526020018373ffffffffffffffffffffffffffffffffffffffff1673ffffffffffffffffffffffffffffffffffffffff1681526020018281526020019350505050602060405180830381600087803b158015613e0d57600080fd5b505af1158015613e21573d6000803e3d6000fd5b505050506040513d6020811015613e3757600080fd5b81019080805190602001909291905050501515613ebc576040517f08c379a000000000000000000000000000000000000000000000000000000000815260040180806020018281038252601f8152602001807f5472616e736665722066726f6d206d73672073656e646572206661696c65640081525060200191505060405180910390fd5b6000809054906101000a900473ffffffffffffffffffffffffffffffffffffffff1673ffffffffffffffffffffffffffffffffffffffff1663827f32c033866040518363ffffffff167c0100000000000000000000000000000000000000000000000000000000028152600401808373ffffffffffffffffffffffffffffffffffffffff1673ffffffffffffffffffffffffffffffffffffffff16815260200182815260200192505050602060405180830381600087803b158015613f8057600080fd5b505af1158015613f94573d6000803e3d6000fd5b505050506040513d6020811015613faa57600080fd5b81019080805190602001909291905050501515613fc657600080fd5b7fac87f20a77d28ee8bbb58ec87ea8fa968b3393efae1a368fd50b767c2847391c33600b60003373ffffffffffffffffffffffffffffffffffffffff1673ffffffffffffffffffffffffffffffffffffffff16815260200190815260200160002054604051808373ffffffffffffffffffffffffffffffffffffffff1673ffffffffffffffffffffffffffffffffffffffff1681526020018281526020019250505060405180910390a15050505050565b60007fffffffffffffffffffffffffffffffffffffffffffffffffffffffffffffffff6140a26123bf565b14905090565b60405180807f4d414e414745525f524f4c450000000000000000000000000000000000000000815250600c019050604051809103902081565b600073ffffffffffffffffffffffffffffffffffffffff16600360009054906101000a900473ffffffffffffffffffffffffffffffffffffffff1673ffffffffffffffffffffffffffffffffffffffff1614151561423d57600360009054906101000a900473ffffffffffffffffffffffffffffffffffffffff1673ffffffffffffffffffffffffffffffffffffffff16631950c218336040518263ffffffff167c0100000000000000000000000000000000000000000000000000000000028152600401808273ffffffffffffffffffffffffffffffffffffffff1673ffffffffffffffffffffffffffffffffffffffff168152602001915050602060405180830381600087803b1580156141f657600080fd5b505af115801561420a573d6000803e3d6000fd5b505050506040513d602081101561422057600080fd5b8101908080519060200190929190505050151561423c57600080fd5b5b614247338261586a565b15156142e1576040517f08c379a00000000000000000000000000000000000000000000000000000000081526004018080602001828103825260278152602001807f55736572206e6f7420617574686f72697a656420746f20636c61696d20616e7981526020017f20746f6b656e730000000000000000000000000000000000000000000000000081525060400191505060405180910390fd5b600860003373ffffffffffffffffffffffffffffffffffffffff1673ffffffffffffffffffffffffffffffffffffffff16815260200190815260200160002060009054906101000a900460ff161515156143a3576040517f08c379a000000000000000000000000000000000000000000000000000000000815260040180806020018281038252601f8152602001807f557365722068617320616c726561647920636c61696d656420746f6b656e730081525060200191505060405180910390fd5b6001600860003373ffffffffffffffffffffffffffffffffffffffff1673ffffffffffffffffffffffffffffffffffffffff16815260200190815260200160002060006101000a81548160ff0219169083151502179055506000809054906101000a900473ffffffffffffffffffffffffffffffffffffffff1673ffffffffffffffffffffffffffffffffffffffff1663827f32c0336004546040518363ffffffff167c0100000000000000000000000000000000000000000000000000000000028152600401808373ffffffffffffffffffffffffffffffffffffffff1673ffffffffffffffffffffffffffffffffffffffff16815260200182815260200192505050602060405180830381600087803b1580156144c157600080fd5b505af11580156144d5573d6000803e3d6000fd5b505050506040513d60208110156144eb57600080fd5b8101908080519060200190929190505050507f689e9fbdf844fc04557a4a9000a12d7e50c0ae7e1f21600e307bf55ea92afa0733604051808273ffffffffffffffffffffffffffffffffffffffff1673ffffffffffffffffffffffffffffffffffffffff16815260200191505060405180910390a150565b60008060009054906101000a900473ffffffffffffffffffffffffffffffffffffffff1673ffffffffffffffffffffffffffffffffffffffff163373ffffffffffffffffffffffffffffffffffffffff16146040805190810160405280601d81526020017f544d5f50524f58595f5041594d454e545f57524f4e475f53454e444552000000815250901515614693576040517f08c379a00000000000000000000000000000000000000000000000000000000081526004018080602001828103825283818151815260200191508051906020019080838360005b8381101561465857808201518184015260208101905061463d565b50505050905090810190601f1680156146855780820380516001836020036101000a031916815260200191505b509250505060405180910390fd5b5060009050919050565b6000809054906101000a900473ffffffffffffffffffffffffffffffffffffffff1681565b6060600780548060200260200160405190810160405280929190818152602001828054801561471057602002820191906000526020600020905b8154815260200190600101908083116146fc575b5050505050905090565b60006001905090565b600043905090565b60008060008414156147405760009150614836565b828402905082848281151561475157fe5b04146040805190810160405280601181526020017f4d4154485f4d554c5f4f564552464c4f57000000000000000000000000000000815250901515614831576040517f08c379a00000000000000000000000000000000000000000000000000000000081526004018080602001828103825283818151815260200191508051906020019080838360005b838110156147f65780820151818401526020810190506147db565b50505050905090810190601f1680156148235780820380516001836020036101000a031916815260200191505b509250505060405180910390fd5b508091505b5092915050565b60006148476123bf565b146040805190810160405280601881526020017f494e49545f414c52454144595f494e495449414c495a45440000000000000000815250901515614926576040517f08c379a00000000000000000000000000000000000000000000000000000000081526004018080602001828103825283818151815260200191508051906020019080838360005b838110156148eb5780820151818401526020810190506148d0565b50505050905090810190601f1680156149185780820380516001836020036101000a031916815260200191505b509250505060405180910390fd5b50614968614932614723565b7febb05b386a8d34882b8711d156f463690983dc47815980fb82aeeff1aa43579e6001026000191661598490919063ffffffff16565b565b606061498b8273ffffffffffffffffffffffffffffffffffffffff1661598b565b9050919050565b600081549050919050565b600081549050919050565b600080600073ffffffffffffffffffffffffffffffffffffffff168373ffffffffffffffffffffffffffffffffffffffff1614156149e957600091506149f4565b823b90506000811191505b50919050565b600080838311156040805190810160405280601281526020017f4d4154485f5355425f554e444552464c4f570000000000000000000000000000815250901515614adf576040517f08c379a00000000000000000000000000000000000000000000000000000000081526004018080602001828103825283818151815260200191508051906020019080838360005b83811015614aa4578082015181840152602081019050614a89565b50505050905090810190601f168015614ad15780820380516001836020036101000a031916815260200191505b509250505060405180910390fd5b5082840390508091505092915050565b600081549050919050565b6060600080606080614b0a610e74565b6040805190810160405280601481526020017f494e49545f4e4f545f494e495449414c495a4544000000000000000000000000815250901515614be8576040517f08c379a00000000000000000000000000000000000000000000000000000000081526004018080602001828103825283818151815260200191508051906020019080838360005b83811015614bad578082015181840152602081019050614b92565b50505050905090810190601f168015614bda5780820380516001836020036101000a031916815260200191505b509250505060405180910390fd5b50600080614bf461334a565b9150614bfe612214565b9050614c098a611173565b9550600073ffffffffffffffffffffffffffffffffffffffff168673ffffffffffffffffffffffffffffffffffffffff1614156040805190810160405280601b81526020017f45564d52554e5f4558454355544f525f554e415641494c41424c450000000000815250901515614d1a576040517f08c379a00000000000000000000000000000000000000000000000000000000081526004018080602001828103825283818151815260200191508051906020019080838360005b83811015614cdf578082015181840152602081019050614cc4565b50505050905090810190601f168015614d0c5780820380516001836020036101000a031916815260200191505b509250505060405180910390fd5b508573ffffffffffffffffffffffffffffffffffffffff1663279cea3590507c0100000000000000000000000000000000000000000000000000000000029450848a8a8a60405160240180806020018060200180602001848103845287818151815260200191508051906020019080838360005b83811015614da9578082015181840152602081019050614d8e565b50505050905090810190601f168015614dd65780820380516001836020036101000a031916815260200191505b50848103835286818151815260200191508051906020019080838360005b83811015614e0f578082015181840152602081019050614df4565b50505050905090810190601f168015614e3c5780820380516001836020036101000a031916815260200191505b50848103825285818151815260200191508051906020019060200280838360005b83811015614e78578082015181840152602081019050614e5d565b505050509050019650505050505050604051602081830303815290604052907bffffffffffffffffffffffffffffffffffffffffffffffffffffffff19166020820180517bffffffffffffffffffffffffffffffffffffffffffffffffffffffff838183161783525050505093508573ffffffffffffffffffffffffffffffffffffffff168460405180828051906020019080838360005b83811015614f2b578082015181840152602081019050614f10565b50505050905090810190601f168015614f585780820380516001836020036101000a031916815260200191505b50915050600060405180830381855af49150506040805190810160405280601981526020017f45564d52554e5f455845435554494f4e5f524556455254454400000000000000815250901515615049576040517f08c379a00000000000000000000000000000000000000000000000000000000081526004018080602001828103825283818151815260200191508051906020019080838360005b8381101561500e578082015181840152602081019050614ff3565b50505050905090810190601f16801561503b5780820380516001836020036101000a031916815260200191505b509250505060405180910390fd5b506150526159e3565b92508573ffffffffffffffffffffffffffffffffffffffff167f5229a5dba83a54ae8cb5b51bdd6de9474cacbe9dd332f5185f3a4f4f2e3f4ad98b8b8660405180806020018060200180602001848103845287818151815260200191508051906020019080838360005b838110156150d75780820151818401526020810190506150bc565b50505050905090810190601f1680156151045780820380516001836020036101000a031916815260200191505b50848103835286818151815260200191508051906020019080838360005b8381101561513d578082015181840152602081019050615122565b50505050905090810190601f16801561516a5780820380516001836020036101000a031916815260200191505b50848103825285818151815260200191508051906020019080838360005b838110156151a3578082015181840152602081019050615188565b50505050905090810190601f1680156151d05780820380516001836020036101000a031916815260200191505b50965050505050505060405180910390a28296508173ffffffffffffffffffffffffffffffffffffffff1661520361334a565b73ffffffffffffffffffffffffffffffffffffffff16146040805190810160405280601f81526020017f45564d52554e5f50524f5445435445445f53544154455f4d4f444946494544008152509015156152f8576040517f08c379a00000000000000000000000000000000000000000000000000000000081526004018080602001828103825283818151815260200191508051906020019080838360005b838110156152bd5780820151818401526020810190506152a2565b50505050905090810190601f1680156152ea5780820380516001836020036101000a031916815260200191505b509250505060405180910390fd5b508060001916615306612214565b60001916146040805190810160405280601f81526020017f45564d52554e5f50524f5445435445445f53544154455f4d4f444946494544008152509015156153e9576040517f08c379a00000000000000000000000000000000000000000000000000000000081526004018080602001828103825283818151815260200191508051906020019080838360005b838110156153ae578082015181840152602081019050615393565b50505050905090810190601f1680156153db5780820380516001836020036101000a031916815260200191505b509250505060405180910390fd5b505050505050509392505050565b60008060008060016006805490500390505b6000811015156154b15760068181548110151561542257fe5b9060005260206000200154851015156154a35760078181548110151561544457fe5b906000526020600020015460058281548110151561545e57fe5b906000526020600020015461549862278d0060068581548110151561547f57fe5b906000526020600020015461472b90919063ffffffff16565b9350935093506154b2565b808060019003915050615409565b5b509193909250565b600080600080600080600080600960008b73ffffffffffffffffffffffffffffffffffffffff1673ffffffffffffffffffffffffffffffffffffffff168152602001908152602001600020541115156155a1576040517f08c379a000000000000000000000000000000000000000000000000000000000815260040180806020018281038252602f8152602001807f5573657220686173206e6f742073746172746564206c6f636b696e672c206e6f81526020017f7468696e6720746f20757064617465000000000000000000000000000000000081525060400191505060405180910390fd5b6155bf6155ba62278d008a615a1390919063ffffffff16565b6153f7565b94509450945082600960008b73ffffffffffffffffffffffffffffffffffffffff1673ffffffffffffffffffffffffffffffffffffffff1681526020019081526020016000205401600a60008b73ffffffffffffffffffffffffffffffffffffffff1673ffffffffffffffffffffffffffffffffffffffff1681526020019081526020016000208190555061569c600b60008b73ffffffffffffffffffffffffffffffffffffffff1673ffffffffffffffffffffffffffffffffffffffff16815260200190815260200160002054856149fa90919063ffffffff16565b915083600b60008b73ffffffffffffffffffffffffffffffffffffffff1673ffffffffffffffffffffffffffffffffffffffff1681526020019081526020016000208190555060009050600860008a73ffffffffffffffffffffffffffffffffffffffff1673ffffffffffffffffffffffffffffffffffffffff16815260200190815260200160002060009054906101000a900460ff161561573e5760045490505b61585961584a826000809054906101000a900473ffffffffffffffffffffffffffffffffffffffff1673ffffffffffffffffffffffffffffffffffffffff166370a082318d6040518263ffffffff167c0100000000000000000000000000000000000000000000000000000000028152600401808273ffffffffffffffffffffffffffffffffffffffff1673ffffffffffffffffffffffffffffffffffffffff168152602001915050602060405180830381600087803b15801561580157600080fd5b505af1158015615815573d6000803e3d6000fd5b505050506040513d602081101561582b57600080fd5b81019080805190602001909291905050506149fa90919063ffffffff16565b866149fa90919063ffffffff16565b829650965050505050509250929050565b600080600260009054906101000a900473ffffffffffffffffffffffffffffffffffffffff1673ffffffffffffffffffffffffffffffffffffffff1663cf5e36df84866040518363ffffffff167c0100000000000000000000000000000000000000000000000000000000028152600401808361ffff1661ffff1681526020018273ffffffffffffffffffffffffffffffffffffffff1673ffffffffffffffffffffffffffffffffffffffff16815260200192505050602060405180830381600087803b15801561593a57600080fd5b505af115801561594e573d6000803e3d6000fd5b505050506040513d602081101561596457600080fd5b810190808051906020019092919050505090506000811191505092915050565b8082555050565b606060016040519080825280602002602001820160405280156159bd5781602001602082028038833980820191505090505b509050818160008151811015156159d057fe5b9060200190602002018181525050919050565b60603d8060008114615a0a576040519250602082018301604052602082036020843e615a0b565b5b505080905090565b600080600083116040805190810160405280600d81526020017f4d4154485f4449565f5a45524f00000000000000000000000000000000000000815250901515615af8576040517f08c379a00000000000000000000000000000000000000000000000000000000081526004018080602001828103825283818151815260200191508051906020019080838360005b83811015615abd578082015181840152602081019050615aa2565b50505050905090810190601f168015615aea5780820380516001836020036101000a031916815260200191505b509250505060405180910390fd5b508284811515615b0457fe5b0490508091505092915050565b828054828255906000526020600020908101928215615b4d579160200282015b82811115615b4c578235825591602001919060010190615b31565b5b509050615b5a9190615b5e565b5090565b615b8091905b80821115615b7c576000816000905550600101615b64565b5090565b905600a165627a7a7230582019107e14c0cc5b724b60baaee41c7b69b5f998cd8ed69ed89415e2f8c935d3ae0029",
  "source": "/*\n * SPDX-License-Identitifer:    GPL-3.0-or-later\n */\n\n/* solium-disable function-order */\n\npragma solidity 0.4.24;\n\nimport \"@aragon/os/contracts/apps/AragonApp.sol\";\nimport \"@aragon/os/contracts/common/IForwarder.sol\";\n\nimport \"@aragon/os/contracts/lib/token/ERC20.sol\";\nimport \"@aragon/os/contracts/lib/math/SafeMath.sol\";\n\nimport \"@aragon/apps-shared-minime/contracts/ITokenController.sol\";\nimport \"@aragon/apps-shared-minime/contracts/MiniMeToken.sol\";\n\ninterface TokenSaleInterface {\n  function getWeiContributed(uint16 _day, address _contributor) external view returns (uint256);\n}\n\ninterface WhitelistInterface {\n  function checkWhitelist(address _user) external view returns (bool);\n}\n\ninterface VaultInterface {\n  function deposit(address _token, uint256 _value) external payable;\n}\n\ncontract MyBitTokenLocker is ITokenController, IForwarder, AragonApp {\n    using SafeMath for uint256;\n\n    //Events\n    event TokenClaimed(address user);\n    event TokensLocked(address user, uint256 amount);\n    event TokensBurned(address user, uint256 amount, string message);\n\n    bytes32 public constant BURN_ROLE = keccak256(\"BURN_ROLE\");\n    bytes32 public constant MANAGER_ROLE = keccak256(\"MANAGER_ROLE\");\n\n    string private constant ERROR_TOKEN_CONTROLLER = \"TM_TOKEN_CONTROLLER\";\n    string private constant ERROR_CAN_NOT_FORWARD = \"TM_CAN_NOT_FORWARD\";\n    string private constant ERROR_PROXY_PAYMENT_WRONG_SENDER = \"TM_PROXY_PAYMENT_WRONG_SENDER\";\n\n    uint256 private constant MONTH = 2592000; //30 days in seconds\n    uint256 private constant CLAIM_TOKENS = 1;\n\n    MiniMeToken public token;\n    ERC20 public erc20;\n    TokenSaleInterface public tokensale;\n    WhitelistInterface public whitelist;\n\n    bool public recoveryStatus;\n    uint256 public claimAmount;\n    uint256[] private lockAmounts;\n    uint256[] private lockIntervals;\n    uint256[] private tokenIntervals;\n    mapping(address => bool) private claimedToken;\n    mapping(address => uint256) private lockStart;\n    mapping(address => uint256) private lockExpiry;\n    mapping(address => uint256) private lockAmount;\n\n    /**\n    * @notice Initialize Token Manager for `_token.symbol(): string`, whose tokens are `transferable ? 'not' : ''` transferable`_maxAccountTokens > 0 ? ' and limited to a maximum of ' + @tokenAmount(_token, _maxAccountTokens, false) + ' per account' : ''`\n    * @param _token The MiniMetoken that is used for voting in the DAO\n    * @param _erc20 The ERC20 token that is locked in order to receive voting tokens\n    * @param _lockAmounts An array of amounts ERC20 that is required to receive voting tokens\n    * @param _lockIntervals An array of lock times (in months)\n    * @param _tokenIntervals An array of token amounts given for locking ERC20s for the amount of time defined by _lockIntervals\n    */\n    function initialize(\n        MiniMeToken _token,\n        address _erc20,\n        address _tokensale,\n        address _whitelist,\n        uint256[] _lockAmounts,\n        uint256[] _lockIntervals,\n        uint256[] _tokenIntervals\n    )\n        external\n\n    {\n        initialized();\n\n        require(MiniMeToken(_token).controller() == address(this), ERROR_TOKEN_CONTROLLER);\n        require(_lockAmounts.length == _lockIntervals.length);\n        require(_lockIntervals.length == _tokenIntervals.length);\n\n        token = _token;\n        token.enableTransfers(false);\n        erc20 = ERC20(_erc20);\n        tokensale = TokenSaleInterface(_tokensale);\n        whitelist = WhitelistInterface(_whitelist);\n        lockAmounts = _lockAmounts;\n        lockIntervals = _lockIntervals;\n        tokenIntervals = _tokenIntervals;\n        setClaimAmount();\n    }\n\n    function setClaimAmount() public {\n      uint256 decimals = uint256(token.decimals());\n      claimAmount = CLAIM_TOKENS.mul(10**decimals);\n    }\n\n    /**\n    * @notice Claim Tokens\n    */\n    function claim(uint16 _day) external {\n      if(whitelist != address(0)){\n        require(whitelist.checkWhitelist(msg.sender));\n      }\n      require(_authorized(msg.sender, _day), 'User not authorized to claim any tokens');\n      require(!claimedToken[msg.sender], 'User has already claimed tokens');\n      claimedToken[msg.sender] = true;\n      token.generateTokens(msg.sender, claimAmount); // minime.generateTokens() never returns false\n      emit TokenClaimed(msg.sender);\n    }\n\n    /**\n    * @notice Lock Tokens\n    */\n    function lock(uint256 _lockTime) external {\n      if(whitelist != address(0)){\n        require(whitelist.checkWhitelist(msg.sender));\n      }\n      uint amount;\n      uint lockVal;\n      uint expiry;\n      uint claimed = 0;\n      if(claimedToken[msg.sender]){ claimed = claimAmount;}\n      require(token.balanceOf(msg.sender) >= claimed, 'Ya burnt');\n      if(token.balanceOf(msg.sender) == claimed){\n        (amount, lockVal, expiry) = _calcLockingValues(_lockTime);\n        lockStart[msg.sender] = now;\n        lockExpiry[msg.sender] = lockStart[msg.sender] + expiry;\n        lockAmount[msg.sender] = lockVal;\n      } else {\n        //In this case we are updating the lock times and the user's voting tokens\n        expiry = _lockTime.mul(MONTH); //Convert from months to seconds\n        //Get amount owed. _updateLock will subtract any voting tokens already minted\n        (amount, lockVal) = _updateLock(msg.sender, expiry);\n      }\n      require(amount > 0);\n      require(erc20.transferFrom(msg.sender, address(this), lockVal), 'Transfer from msg sender failed');\n      require(token.generateTokens(msg.sender, amount));\n      emit TokensLocked(msg.sender, lockAmount[msg.sender]);\n    }\n\n    /**\n    * @notice Unlock Tokens\n    */\n    function unlock() external {\n      require(lockExpiry[msg.sender] < now, 'Tokens are still locked');\n      delete lockExpiry[msg.sender];\n      delete lockStart[msg.sender];\n      uint claimed = 0;\n      if(claimedToken[msg.sender]){ claimed = claimAmount;}\n      require(token.destroyTokens(msg.sender, token.balanceOf(msg.sender).sub(claimed)), 'Tokens not destroyed');\n      require(erc20.transfer(msg.sender, lockAmount[msg.sender]), 'ERC20 not returned');\n      delete lockAmount[msg.sender];\n      emit TokensLocked(msg.sender, 0);\n    }\n\n    /**\n    * @notice Burn Tokens of `_user` for '`_message`'\n    */\n    function burn(address _user, string _message) external authP(BURN_ROLE, arr(_user)){\n      uint balance = token.balanceOf(_user);\n      require(balance > 0, 'User has no tokens to burn');\n      if(lockAmount[_user] > 0){\n        //If user has locked ERC20, send lockAmount to the vault\n        address vault = getRecoveryVault();\n        uint amount = lockAmount[_user];\n        delete lockAmount[_user];\n        if(vault != address(0)){\n          require(erc20.approve(vault, amount));\n          VaultInterface(vault).deposit(address(erc20), amount);\n        }\n      }\n      require(token.destroyTokens(_user, balance));\n      emit TokensBurned(_user, balance, _message);\n    }\n\n    function getLockAmounts() external view returns (uint256[]){\n      return lockAmounts;\n    }\n\n    function getLockIntervals() external view returns (uint256[]){\n      return lockIntervals;\n    }\n\n    function getTokenIntervals() external view returns (uint256[]){\n      return tokenIntervals;\n    }\n\n    /**\n     * @notice Change locking values\n     */\n    function changeLocks(\n        uint256[] _lockAmounts,\n        uint256[] _lockIntervals,\n        uint256[] _tokenIntervals\n    )\n        external\n        auth(MANAGER_ROLE)\n    {\n        require(_lockAmounts.length == _lockIntervals.length);\n        require(_lockIntervals.length == _tokenIntervals.length);\n        lockAmounts = _lockAmounts;\n        lockIntervals = _lockIntervals;\n        tokenIntervals = _tokenIntervals;\n    }\n\n    /**\n     * @notice Give control of token over to `_newController`\n     * @param _newController Ethereum address of contract or user that will controll the token\n     */\n    function changeTokenController(address _newController) external auth(MANAGER_ROLE){\n      token.changeController(_newController);\n    }\n\n    /**\n     * @notice Change the whitelist to `_newNewWhitelist`\n     * @param _newWhitelist Ethereum address of the new whitelist\n     */\n    function changeWhitelist(address _newWhitelist) external auth(MANAGER_ROLE){\n      whitelist = WhitelistInterface(_newWhitelist);\n    }\n\n\n    /**\n    *\n    *\n    */\n    function _updateLock(address _user, uint256 _seconds)\n    private\n    returns (uint256, uint256){\n      require(lockStart[_user] > 0, 'User has not started locking, nothing to update');\n      (uint amount, uint lockVal, uint lockInterval) = _calcLockingValues(_seconds.div(MONTH));\n      lockExpiry[_user] = lockStart[_user] + lockInterval;\n      uint lockDiff = lockVal.sub(lockAmount[_user]);\n      lockAmount[_user] = lockVal;\n      uint claimed = 0;\n      if(claimedToken[_user]){ claimed = claimAmount;}\n      return (amount.sub(token.balanceOf(_user).sub(claimed)), lockDiff);\n    }\n\n    /**\n    *\n    *\n    */\n    function _calcLockingValues(uint256 _months)\n    private\n    returns (uint256, uint256, uint256){\n      //Reverse loop\n      for(uint i=lockIntervals.length-1; i>=0; i--){\n        if(_months >= lockIntervals[i]){\n          return(tokenIntervals[i], lockAmounts[i], lockIntervals[i].mul(MONTH));\n        }\n      }\n    }\n\n    /**\n    *\n    *\n    */\n    function _authorized(address _user, uint16 _day)\n    private\n    returns (bool) {\n      uint contribution = tokensale.getWeiContributed(_day, _user);\n      return(contribution > 0);\n    }\n\n    /**\n    * @notice Execute desired action as a token holder\n    * @dev IForwarder interface conformance. Forwards any token holder action.\n    * @param _evmScript Script being executed\n    */\n    function forward(bytes _evmScript) public {\n        require(canForward(msg.sender, _evmScript), ERROR_CAN_NOT_FORWARD);\n        bytes memory input = new bytes(0); // TODO: Consider input for this\n\n        // Add the managed token to the blacklist to disallow a token holder from executing actions\n        // on the token controller's (this contract) behalf\n        address[] memory blacklist = new address[](1);\n        blacklist[0] = address(token);\n\n        runScript(_evmScript, input, blacklist);\n    }\n\n    function isForwarder() public pure returns (bool) {\n        return true;\n    }\n\n    function canForward(address _sender, bytes) public view returns (bool) {\n        return hasInitialized() && token.balanceOf(_sender) > 0;\n    }\n\n    /*\n    * @dev Notifies the controller about a token transfer allowing the controller to decide whether to allow it or react if desired (only callable from the token)\n    * @param _from The origin of the transfer\n    * @param _to The destination of the transfer\n    * @param _amount The amount of the transfer\n    * @return False if the controller does not authorize the transfer\n    */\n    function onTransfer(address _from, address _to, uint _amount) public isInitialized returns (bool) {\n        return false;\n    }\n\n    /**\n    * @notice Called when ether is sent to the MiniMe Token contract\n    * @return True if the ether is accepted, false for it to throw\n    */\n    function proxyPayment(address) public payable returns (bool) {\n        // Sender check is required to avoid anyone sending ETH to the Token Manager through this method\n        // Even though it is tested, solidity-coverage doesnt get it because\n        // MiniMeToken is not instrumented and entire tx is reverted\n        require(msg.sender == address(token), ERROR_PROXY_PAYMENT_WRONG_SENDER);\n        return false;\n    }\n\n    /**\n    * @dev Notifies the controller about an approval allowing the controller to react if desired\n    * @return False if the controller does not authorize the approval\n    */\n    function onApprove(address, address, uint) public returns (bool) {\n        return false;\n    }\n\n    function setRecoveryStatus(bool _status)  external auth(MANAGER_ROLE){\n      recoveryStatus = _status;\n    }\n\n    /**\n    * @dev Disable recovery escape for erc20 depending on recoveryStatus\n    */\n    function allowRecoverability(address _token) public view returns (bool) {\n      if(_token == address(erc20)){\n        return recoveryStatus;\n      } else {\n        return true;\n      }\n    }\n}\n",
  "sourcePath": "/home/peter/Documents/Work/MyBit/MyBit-Tokens.dao/contracts/MyBitTokenLocker.sol",
  "compiler": {
    "name": "solc",
    "version": "0.4.24+commit.e67f0147.Emscripten.clang"
  },
  "schemaVersion": "2.0.1",
  "updatedAt": "2019-04-02T18:13:25.616Z"
}